:020000040800F2
:10000000B00A002059070008B9070008B90700081E
:10001000B9070008B9070008B90700080000000088
:10002000000000000000000000000000B907000808
:10003000B907000800000000B9070008991E000871
:10004000B9070008B9070008B9070008B907000890
:10005000B9070008B9070008351D0008531D00083E
:10006000711D00088F1D0008B9070008B9070008B6
:10007000B9070008B9070008B9070008B907000860
:10008000B9070008B9070008B9070008B907000850
:10009000B9070008B9070008B9070008AD1D000836
:1000A000B9070008B9070008B9070008B907000830
:1000B000992B0008B9070008B9070008B90700081C
:1000C000B9070008B9070008B9070008B907000810
:1000D000B9070008B9070008510200080D2A0008F6
:1000E000B9070008B9070008B9070008B9070008F0
:1000F000B9070008B9070008B9070008B9070008E0
:10010000B9070008B907000871390008B9070008E5
:10011000311F0008B9070008B9070008B90700082F
:10012000B9070008B9070008B9070008B9070008AF
:10013000B9070008B9070008B9070008B90700089F
:10014000B9070008B9070008B9070008B90700088F
:10015000B9070008B9070008B9070008B90700087F
:10016000B9070008B9070008B9070008B90700086F
:10017000B9070008B9070008B9070008B90700085F
:10018000B9070008B907000880B588B000AF0121A1
:10019000012000F0C3FE01214FF4003000F0DCFE2E
:1001A0000C237B6102237B7602233B760023BB7604
:1001B0000023FB7607F114031946234801F0FAFEE9
:1001C00007220321204801F0B7FF072202211E4821
:1001D00001F0B2FF01214FF4003000F0BDFE1B48DA
:1001E00000F0C6F84FF416537B6000233B810023D8
:1001F0007B810023BB8100233B820C23FB813B1DC1
:100200001946124800F01EF90121104800F0D4F9F7
:10021000012240F225510D4800F0FCF926233B77DE
:1002200000237B770023BB770123FB7707F11C03B7
:10023000184603F013FA0121044800F0BDF900BF8D
:100240002037BD4680BD00BF000002400044004092
:1002500080B500AF40F225511B4800F022FA03465A
:10026000002B06D0184800F0C6F90346DAB2174B47
:100270001A70174B1B784D2B07D1144B1A78154B5E
:100280001A70134B00221A701BE0114B1B78582B6D
:1002900007D10E4B1A78104B1A700D4B00221A70B2
:1002A0000FE00B4B1B78422B07D1084B1A780B4BF6
:1002B0001A70074B00221A7003E0044B1A78044BA3
:1002C0001A7000BF80BD00BF004400408B010020B9
:1002D0008A01002089010020000000208401002004
:1002E00080B500AFFFF750FF00BF80BD90B484B071
:1002F00000AF03460A46FB711346BB710023FB6047
:10030000BB7903F003039B000F2202FA03F3FB60A7
:100310001649BB799B08DBB21846144ABB799B0887
:10032000DBB2023352F82320FB68DB431A40831C04
:1003300041F823200D48BB799B08DBB21C460B4AD1
:10034000BB799B08DBB2023352F82320F979BB79E1
:1003500003F003039B0001FA03F31A43A31C40F8C4
:10036000232000BF1037BD4690BC704700380140C5
:1003700080B582B000AF78607B682C4A934208D188
:100380000121102000F042FE0021102000F03EFE6E
:1003900047E07B68264A93420AD101214FF400309E
:1003A00000F016FE00214FF4003000F011FE38E09E
:1003B0007B68204A93420AD101214FF4802000F04B
:1003C00007FE00214FF4802000F002FE29E07B6848
:1003D000194A93420AD101214FF4002000F0F8FDA0
:1003E00000214FF4002000F0F3FD1AE07B68134A6F
:1003F00093420AD101214FF4801000F0E9FD002161
:100400004FF4801000F0E4FD0BE07B680C4A93424F
:1004100007D10121202000F0F9FD0021202000F06B
:10042000F5FD00BF0837BD4680BD00BF001001408C
:100430000044004000480040004C00400050004094
:100440000014014080B58AB000AF786039600023A5
:100450007B6200233B620023FB610023BB617B685E
:100460001B8A9BB27B627B6A23F440537B623B68AE
:10047000DB881A467B6A13437B627B6A9AB27B688D
:100480001A827B689B899BB27B627B6A23F4B053A0
:1004900023F00C037B623B689A883B681B891343FB
:1004A0009AB23B685B8913439BB21A467B6A13433B
:1004B0007B627B6A9AB27B689A817B689B8A9BB2DB
:1004C0007B627B6A23F440737B623B689B891A469C
:1004D0007B6A13437B627B6A9AB27B689A8207F1DC
:1004E0000803184600F072FC7B68304A934203D040
:1004F0007B682F4A934202D17B693B6201E03B69F2
:100500003B627B689B899BB21BB2002B0CDA3A6A78
:1005100013469B0013449A001A443B681B685B0017
:10052000B2FBF3F3FB610BE03A6A13469B00134402
:100530009A001A443B681B689B00B2FBF3F3FB6113
:10054000FB691C4AA2FB03235B091B017B627B6ADC
:100550001B09642202FB03F3FA69D31ABB617B68AF
:100560009B899BB21BB2002B0CDABB69DB003233D8
:10057000104AA2FB03235B0903F007037A6A1343C3
:100580007B620BE0BB691B0132330A4AA2FB0323E7
:100590005B0903F00F037A6A13437B627B6A9AB2AA
:1005A0007B681A8100BF2837BD4680BD001001401E
:1005B000001401401F85EB5180B483B000AF786018
:1005C0000B46FB70FB78002B08D07B689B899BB2A5
:1005D00043F400539AB27B689A8107E07B689B8959
:1005E0009BB223F400539AB27B689A8100BF0C3708
:1005F000BD4680BC704780B483B000AF78607B6834
:100600009B889BB2C3F308039BB218460C37BD46C8
:1006100080BC704780B487B000AF78600B467B80A9
:1006200013467B7000233B610023FB600023BB600B
:1006300000237B617B687B617B88DBB25B09DBB27B
:100640003B617B8803F01F03FB600122FB6802FA19
:1006500003F3BB603B69012B03D17B690C337B61E6
:1006600009E03B69022B03D17B6910337B6102E017
:100670007B6914337B617B78002B06D07B697A69B8
:100680001168BA680A431A6006E07B697A691168E2
:10069000BA68D2430A401A6000BF1C37BD4680BC0E
:1006A000704780B487B000AF78600B467B80002332
:1006B000FB6000237B610023BB600023FB747B880D
:1006C000DBB25B09DBB2BB607B8803F01F037B619D
:1006D00001227B6902FA03F37B61BB68012B07D11E
:1006E0007B689B899BB21A467B6913407B6111E052
:1006F000BB68022B07D17B681B8A9BB21A467B69B9
:1007000013407B6106E07B689B8A9BB21A467B693B
:1007100013407B617B881B0A9BB2FB600122FB6854
:1007200002FA03F3FB607B681B889BB21A46FB68E6
:100730001340FB607B69002B05D0FB68002B02D0C7
:100740000123FB7401E00023FB74FB7C18461C377B
:10075000BD4680BC7047000080B582B000AF114B31
:100760007B60114B3B6007E03B681A1D3A607A687A
:10077000111D796012681A603B680C4A9342F3D3EA
:100780000B480C494FF000028842B8BF40F8042BD8
:10079000FADB02F037F800F0ABFA00BF0837BD46CD
:1007A00080BD00BFE864000800000020A800002011
:1007B000A8000020B002002080B400AFFEE70000D7
:1007C00080B584B000AF0121042000F0C5FB0023F8
:1007D000BB800023FB804FF6FF73BB600023BB810F
:1007E0000023BB733B1D1946054803F0E5F80121C2
:1007F000034803F04BF900BF1037BD4680BD00BF72
:100800000008004080B584B000AF0121022000F054
:10081000A3FB0023BB800023FB804FF6FF73BB606C
:100820000023BB810023BB733B1D1946054803F021
:10083000C3F80121034803F029F900BF1037BD4672
:1008400080BD00BF0004004080B586B000AFFFF758
:10085000B7FF7023BB800123FB8002233B8240F65D
:100860003303FB603B1D1946184803F02FF908219C
:10087000164803F019FB41F26703FB603B1D194664
:10088000124803F09DF90821104803F028FB41F6B7
:100890009B03FB603B1D19460C4803F019FA082125
:1008A0000A4803F039FB42F2CF03FB603B1D1946B7
:1008B000064803F093FA0821044803F048FB00F0CF
:1008C0004BF800BF1837BD4680BD00BF0008004090
:1008D00080B586B000AFFFF795FF7023BB80012382
:1008E000FB8002233B8240F63303FB603B1D19462D
:1008F000184803F0EBF80821164803F0D5FA41F246
:100900006703FB603B1D1946124803F059F90821A3
:10091000104803F0E4FA41F69B03FB603B1D1946C7
:100920000C4803F0D5F908210A4803F0F5FA42F221
:10093000CF03FB603B1D1946064803F04FFA082120
:10094000044803F004FB00F065F800BF1837BD460B
:1009500080BD00BF0004004080B582B000AF01211F
:10096000082000F0DBFA02220C21274801F0E4FB0A
:1009700002220D21244801F0DFFB02220E21224831
:1009800001F0DAFB02220F211F4801F0D5FB4FF4E2
:100990007C433B600023BB710023FB7102233B714E
:1009A00003237B713B461946174801F003FB0121E5
:1009B000102000F0B3FA4FF470433B600023BB718A
:1009C0000023FB7101233B7103237B713B461946D6
:1009D0000E4801F0EFFA0121022000F09FFA4FF4D7
:1009E00070433B600023BB710023FB7101233B710B
:1009F00003237B713B461946054801F0DBFA00BF33
:100A00000837BD4680BD00BF000C02400010024008
:100A10000004024080B582B000AF0121042000F044
:100A20007DFA02220621214801F086FB01210420E3
:100A300000F074FA40233B600023BB710023FB717C
:100A400002233B7103237B713B461946174801F093
:100A5000B1FA0121102000F061FA4FF400633B600D
:100A60000023BB710023FB7101233B7103237B71C6
:100A70003B4619460E4801F09DFA0121042000F082
:100A80004DFA4FF400433B600023BB710023FB7120
:100A900001233B7103237B713B461946034801F058
:100AA00089FA00BF0837BD4680BD00BF000802407C
:100AB0000010024080B584B000AF03463960FB717E
:100AC0003B68002BCCBF01230023FB733B68002B4A
:100AD000B8BF5B423B60FB79013B032B7AD801A294
:100AE00052F823F0F50A00082D0B0008650B0008EA
:100AF0009D0B0008FB7B002B0AD04FF48051384837
:100B000001F0FEFA4FF40051354801F007FB09E00F
:100B10004FF40051324801F0F3FA4FF4805130485D
:100B200001F0FCFA2F4A3B68536354E0FB7B002B37
:100B30000AD04FF480412A4801F0E2FA4FF4004114
:100B4000274801F0EBFA09E04FF40041244801F096
:100B5000D7FA4FF48041224801F0E0FA214A3B687D
:100B6000936338E0FB7B002B0AD04FF480511E4882
:100B700001F0C6FA4FF480411B4801F0CFFA09E0BA
:100B80004FF48041184801F0BBFA4FF480511648E9
:100B900001F0C4FA134A3B68D3631CE0FB7B002BD3
:100BA0000AD04FF40051104801F0AAFA4FF4004166
:100BB0000D4801F0B3FA09E04FF400410A4801F092
:100BC0009FFA4FF40051084801F0A8FA054A3B6823
:100BD000136400E000BF00BF1037BD4680BD00BFFA
:100BE00000040240000800400010024080B584B0BC
:100BF00000AF78607B68002BCCBF01230023FB7320
:100C00007B68002BB8BF5B427B60FB7B002B0AD06C
:100C10004FF400610C4801F073FA4FF400410B48A7
:100C200001F07CFA09E04FF40041084801F068FA4D
:100C30004FF40061044801F071FA054A7B68536380
:100C400000BF1037BD4680BD0010024000080240C2
:100C50000004004080B582B000AF7860786802F090
:100C60006DFB4FF4FA6001F0FFF8786802F082FB48
:100C70004FF4FA6001F0F8F8786802F0ADFB4FF439
:100C8000FA6001F0F1F8786802F08CFB4FF4FA603A
:100C900001F0EAF8786802F0DFFB4FF4FA6001F047
:100CA000E3F8786802F0C5FB4FF4FA6001F0DCF875
:100CB000786802F0E7FB4FF4FA6001F0D5F8786845
:100CC00002F0A2FB4FF4FA6001F0CEF8786802F06F
:100CD0000DFC4FF4FA6001F0C7F8786802F0E8FB09
:100CE0004FF4FA6001F0C0F800BF0837BD4680BD80
:100CF00080B500AF01F086FD01F0E6FA01F0F0F8F2
:100D000002F052FE01F0FEFA02F054FD02F0F0FA99
:100D100001F05AFAFFF7E4FA01F01CFE01F072FA52
:100D200001F006FD01F0A0FA4FF4FA7001F09CF812
:100D300001F0B2FA4FF40051054801F0C8F903463A
:100D40001A46044B1A601E20FFF784FFF2E700BF2B
:100D5000000802408C01002080B483B000AF03463D
:100D6000FB71054B00221A70034AFB79137000BF18
:100D70000C37BD4680BC70470238024080B582B057
:100D800000AF00233B600023FB710023BB713120C7
:100D900000F05AF90346BB713B6801333B603B6886
:100DA000B3F5A06F02D0BB79002BF0D0312000F05A
:100DB0004BF90346002B02D00123FB7101E0002315
:100DC000FB71FB7918460837BD4680BD80B489B0F9
:100DD00000AF78600023BB6100237B610023FB61CF
:100DE00002233B610023FB600223BB60474B9B68EF
:100DF00003F00C03BB61BB69042B07D0082B09D09F
:100E0000002B3DD17B68424A1A603DE07B68414A35
:100E10001A6039E03D4B5B689B0D03F00103FB60FA
:100E20003A4B5B6803F03F03BB60FB68002B0CD0C0
:100E3000384ABB68B2FBF3F3344A52689209C2F3F2
:100E4000080202FB03F3FB610BE0314ABB68B2FB13
:100E5000F3F32E4A52689209C2F3080202FB03F32D
:100E6000FB612A4B5B681B0C03F0030301335B003F
:100E70003B61FA693B69B2FBF3F27B681A6003E0FD
:100E80007B68234A1A6000BF204B9B6803F0F00385
:100E9000BB61BB691B09BB611F4ABB6913441B785B
:100EA000DBB27B617B681A687B69DA407B685A60D9
:100EB000164B9B6803F4E053BB61BB699B0ABB61A3
:100EC000154ABB6913441B78DBB27B617B685A68A7
:100ED0007B69DA407B689A600C4B9B6803F4604343
:100EE000BB61BB695B0BBB610B4ABB6913441B78DD
:100EF000DBB27B617B685A687B69DA407B68DA60C9
:100F000000BF2437BD4680BC704700BF0038024098
:100F10000024F40000127A000400002080B483B0A2
:100F200000AF78600B46FB70FB78002B06D00949B8
:100F3000084B1A6B7B6813430B6306E00549054BAE
:100F40001A6B7B68DB4313400B6300BF0C37BD4655
:100F500080BC70470038024080B483B000AF786036
:100F60000B46FB70FB78002B06D00949084B1A6C26
:100F70007B6813430B6406E00549054B1A6C7B68DC
:100F8000DB4313400B6400BF0C37BD4680BC704789
:100F90000038024080B483B000AF78600B46FB702D
:100FA000FB78002B06D00949084B5A6C7B68134329
:100FB0004B6406E00549054B5A6C7B68DB431340E4
:100FC0004B6400BF0C37BD4680BC70470038024000
:100FD00080B483B000AF78600B46FB70FB78002BC9
:100FE00006D00949084B1A6A7B6813430B6206E076
:100FF0000549054B1A6A7B68DB4313400B6200BF4F
:101000000C37BD4680BC70470038024080B483B0C6
:1010100000AF78600B46FB70FB78002B06D00949C7
:10102000084B5A6A7B6813434B6206E00549054B3F
:101030005A6A7B68DB4313404B6200BF0C37BD46E6
:1010400080BC70470038024080B487B000AF0346D0
:10105000FB710023FB6000237B610023FB74FB79A1
:101060005B09DBB2FB60FB68012B03D1124B1B68F1
:101070007B6109E0FB68022B03D10F4B1B6F7B6187
:1010800002E00D4B5B6F7B61FB7903F01F03FB609C
:101090007A69FB6822FA03F303F00103002B02D004
:1010A0000123FB7401E00023FB74FB7C18461C3712
:1010B000BD4680BC704700BF0038024080B483B09A
:1010C00000AF78600B46FB707B68FA781A700123DA
:1010D00018460C37BD4680BC704780B485B000AF61
:1010E000786039600023FB600AE07B685A1C7A60F4
:1010F0003A68511C396012781A70FB680133FB6042
:101100003B681B78002BF0D1FB6818461437BD46AE
:1011100080BC704780B586B000AFF8607A603B60F5
:101120000B46FB7200237B617B68013B7B603B6865
:10113000092B1DD93B681D4AA2FB0323DB08F97A62
:101140007A68F868FFF7E6FF78617B69FA6813440C
:10115000FB6010E0FB7A1946F868FFF7AFFFFB6809
:101160000133FB607B6901337B617B68013B7B6002
:101170007B68002BEEDC39680C4BA3FB0123DA08FB
:1011800013469B0013445B00CA1AD3B23033DBB260
:101190001946F868FFF792FF02467B6913447B61AA
:1011A0007B6918461837BD4680BD00BFCDCCCCCC7E
:1011B00080B586B000AFF8607A603B600B46FB728A
:1011C00000237B613B68002B03DA3B685B423B6199
:1011D00001E03B683B617B68013B7B603B69092B1D
:1011E0001FD93B68002B0CDA3B692E4AA2FB032374
:1011F000DB085B42F97A7A68F868FFF7D9FF786113
:101200000AE03B69274AA2FB0323DB08F97A7A68E4
:10121000F868FFF7CDFF78617B69FA681344FB60DB
:1012200025E03B68002B11DA7B68013B7B600DE019
:10123000FB7A1946F868FFF741FFFB680133FB6052
:101240007B6901337B617B68013B7B607B68002BA2
:10125000EEDC3B68002B0ADA2D21F868FFF72EFF41
:1012600002467B6913447B61FB680133FB6039698B
:101270000C4BA3FB0123DA0813469B0013445B00CD
:10128000CA1AD3B23033DBB21946F868FFF716FF3B
:1012900002467B6913447B617B6918461837BD465B
:1012A00080BD00BFCDCCCCCC80B588B002AFF8609B
:1012B0007A601A460B46FB721346BB7200237B61B1
:1012C0007B68013B7B603B6A1B09002B20D03B6A9B
:1012D0001B09BA7AF97A009313467A68F868FFF71F
:1012E000E3FF02467B6913447B617B69FA68134420
:1012F000FB6010E0FB7A1946F868FFF7DFFEFB6839
:101300000133FB607B6901337B617B68013B7B6060
:101310007B68002BEEDC3B6A03F00F03092B0BD834
:101320003B6ADBB203F00F03DBB23033DBB21946AA
:10133000F868FFF7C3FE19E0BB7A002B0BD03B6ABD
:10134000DBB203F00F03DBB23733DBB21946F868C8
:10135000FFF7B4FE0AE03B6ADBB203F00F03DBB237
:101360005733DBB21946F868FFF7A8FE7B690133F3
:101370007B617B6918461837BD4680BD80B58AB051
:1013800002AFF860B9607A603B600023BB61002364
:101390007B61FB68002B00F0FC80FB6800221A7068
:1013A000F7E07B681B78252B0BD0FB685A1CFA6092
:1013B0007A68511C796012781A707B6901337B61FD
:1013C000E7E07B6801331B78252B0BD1FB685A1CA7
:1013D000FA6025221A707B6802337B607B690133D7
:1013E0007B61D6E02023FB770023BB777B6801334A
:1013F0007B607B681B78302B14D13023FB777B68B4
:1014000001337B600EE0BB7F1A46920013445B0001
:10141000DAB27B681B781344DBB2303BBB777B6866
:1014200001337B607B681B782F2B03D97B681B788B
:10143000392BE8D9BA7F7B6913441A46BB689A42B4
:1014400005D9BB68DAB27B69DBB2D31ABB777B689C
:101450001B78583B202B00F28E8001A252F823F01B
:101460003115000877150008771500087715000872
:10147000771500087715000877150008771500081C
:101480007715000877150008771500086115000822
:10149000E51400087715000877150008771500088F
:1014A00077150008E514000877150008771500087F
:1014B00077150008771500087715000877150008DC
:1014C0007715000877150008771500084D150008F6
:1014D00077150008FD140008771500087715000837
:1014E00015150008B87F3B681A1D3A601B68F97F24
:1014F0000246F868FFF75CFEB8613FE0B87F3B68E2
:101500001A1D3A601B68F97F0246F868FFF702FE71
:10151000B86133E0B87F3B681A1D3A601B68F97FF9
:10152000009300230246F868FFF7BEFEB86125E08D
:10153000B87F3B681A1D3A601B68F97F009301234E
:101540000246F868FFF7B0FEB86117E03B681A1D65
:101550003A601B681946F868FFF7BFFDB8610DE0F7
:101560003B681A1D3A601B68DBB21946F868FFF742
:10157000A5FDB86102E04FF0FF3325E07B68013341
:101580007B60BB69FA681344FB607A69BB691344EA
:101590007B617B681B78002B04D07A69BB689A4218
:1015A000FFF4FFAE7A69BB689A4203D2FB6800225F
:1015B0001A7008E0FB68013BFB60FB6800221A70B0
:1015C0007B69013B7B617B6918462037BD4680BD46
:1015D00080B584B000AFF860B9607A607B68BA68A3
:1015E0006421F868FFF7CAFE034618461037BD4667
:1015F00080BD0EB480B585B000AF786007F12003E0
:10160000BB60BA68F9697868FFF7E2FFF860FB68C9
:1016100018461437BD46BDE8804003B0704700004F
:1016200080B588B000AF786001210820FFF776FC14
:1016300001214FF48040FFF7ADFC00233B770023EE
:10164000BB770123FB7703237B770123BB6107F182
:10165000180319461A4800F0ADFC1023BB6107F1CE
:1016600018031946164800F0A5FC00210320FEF7D8
:101670003DFE01233B610123BB7500233B75102315
:101680007B7507F11003184601F044FF06233B73F6
:1016900003237B730023BB730123FB7307F10C034C
:1016A000184601F0DBFF074B00221A607B6800221E
:1016B0005A607B6800221A6000BF2037BD4680BD9B
:1016C000000C0240A401002080B588B000AF786013
:1016D00001210820FFF722FC01214FF48040FFF791
:1016E00059FC00233B770023BB770123FB770323BF
:1016F0007B770223BB6107F1180319461A4800F0F3
:1017000059FC2023BB6107F118031946164800F065
:1017100051FC01210320FEF7E9FD02233B61012377
:10172000BB7500233B7510237B7507F1100318462A
:1017300001F0F0FE07233B7303237B730023BB738D
:101740000123FB7307F10C03184601F087FF074BD9
:1017500000221A607B6800225A607B6800221A60AF
:1017600000BF2037BD4680BD000C0240A001002014
:1017700080B588B000AF786001210820FFF7CEFB6C
:1017800001214FF48040FFF705FC00233B77002345
:10179000BB770123FB7703237B770423BB6107F12E
:1017A000180319461A4800F005FC4023BB6107F1F5
:1017B00018031946164800F0FDFB02210320FEF72E
:1017C00095FD04233B610123BB7500233B7510236A
:1017D0007B7507F11003184601F09CFE08233B734C
:1017E00003237B730023BB730123FB7307F10C03FB
:1017F000184601F033FF074B00221A607B68002275
:101800005A607B6800221A6000BF2037BD4680BD49
:10181000000C0240A801002080B588B000AF7860BD
:1018200001210820FFF77AFB01214FF48040FFF7E8
:10183000B1FB00233B770023BB770123FB77032316
:101840007B770823BB6107F1180319461A4800F09B
:10185000B1FB8023BB6107F118031946164800F05D
:10186000A9FB03210320FEF741FD08233B6101236F
:10187000BB7500233B7510237B7507F110031846D9
:1018800001F048FE09233B7303237B730023BB73E2
:101890000123FB7307F10C03184601F0DFFE074B31
:1018A00000221A607B6800225A607B6800221A605E
:1018B00000BF2037BD4680BD000C02409C010020C7
:1018C00080B588B000AF786001210820FFF726FBC3
:1018D00001214FF48040FFF75DFB00233B7700239D
:1018E000BB770123FB7703237B774FF40073BB6146
:1018F00007F1180319461C4800F05CFB4FF4807395
:10190000BB6107F118031946174800F053FB092182
:101910000320FEF7EBFC4FF400733B610123BB7522
:1019200000233B7510237B7507F11003184601F067
:10193000F1FD17233B7303237B730023BB73012348
:10194000FB7307F10C03184601F088FE074B0022D9
:101950001A607B6800225A607B6800221A6000BF10
:101960002037BD4680BD00BF000C0240AC01002006
:1019700080B483B000AF7860124B1A687B681B6834
:10198000D21A7B685A600F4B1A687B681A600D4B3D
:101990001B68002B04DA7B6801221A7201230CE019
:1019A000084B1B68002B04DD7B6800221A720023A1
:1019B00003E07B6802221A72022318460C37BD46E8
:1019C00080BC7047A401002080B483B000AF786071
:1019D000124B1A687B681B68D21A7B685A600F4BDF
:1019E0001A687B681A600D4B1B68002B04DA7B6851
:1019F00001221A7201230CE0084B1B68002B04DD46
:101A00007B6800221A72002303E07B6802221A72AC
:101A1000022318460C37BD4680BC7047A001002049
:101A200080B483B000AF7860124B1A687B681B6883
:101A3000D21A7B685A600F4B1A687B681A600D4B8C
:101A40001B68002B04DA7B6801221A7201230CE068
:101A5000084B1B68002B04DD7B6800221A720023F0
:101A600003E07B6802221A72022318460C37BD4637
:101A700080BC7047A801002080B483B000AF7860BC
:101A8000124B1A687B681B68D21A7B685A600F4B2E
:101A90001A687B681A600D4B1B68002B04DA7B68A0
:101AA00001221A7201230CE0084B1B68002B04DD95
:101AB0007B6800221A72002303E07B6802221A72FC
:101AC000022318460C37BD4680BC70479C0100209D
:101AD00080B483B000AF7860124B1A687B681B68D3
:101AE000D21A7B685A600F4B1A687B681A600D4BDC
:101AF0001B68002B04DA7B6801221A7201230CE0B8
:101B0000084B1B68002B04DD7B6800221A7200233F
:101B100003E07B6802221A72022318460C37BD4686
:101B200080BC7047AC01002080B582B000AF0121BD
:101B3000144800F0CCFA0346FB711021114800F064
:101B4000C6FA0346BB71104B1B78FA799A4214D03F
:101B50000D4AFB7913700C4B1B78002B0DD1BB7910
:101B6000012B05D1094B1B680133084A136004E0BF
:101B7000064B1B68013B054A136000BF0837BD4692
:101B800080BD00BF000C024014000020A401002012
:101B900080B582B000AF0221144800F098FA0346E5
:101BA000FB712021114800F092FA0346BB71104BE3
:101BB0001B78FA799A4214D00D4AFB7913700C4BBA
:101BC0001B78002B0DD1BB79012B05D1094B1B686C
:101BD0000133084A136004E0064B1B68013B054AC9
:101BE000136000BF0837BD4680BD00BF000C024037
:101BF00015000020A001002080B582B000AF0421B4
:101C0000144800F064FA0346FB714021114800F0CB
:101C10005EFA0346BB71104B1B78FA799A4214D0D6
:101C20000D4AFB7913700C4B1B78002B0DD1BB793F
:101C3000012B05D1094B1B680133084A136004E0EE
:101C4000064B1B68013B054A136000BF0837BD46C1
:101C500080BD00BF000C024016000020A80100203B
:101C600080B582B000AF0821144800F030FA034676
:101C7000FB718021114800F02AFA0346BB71104B1A
:101C80001B78FA799A4214D00D4AFB7913700C4BE9
:101C90001B78002B0DD1BB79012B05D1094B1B689B
:101CA0000133084A136004E0064B1B68013B054AF8
:101CB000136000BF0837BD4680BD00BF000C024066
:101CC000170000209C01002080B582B000AF4FF4C7
:101CD0008071154800F0FBF90346FB714FF4007169
:101CE000114800F0F4F90346BB71104B1B78FA79E8
:101CF0009A4214D00D4AFB7913700C4B1B78002BC1
:101D00000DD1BB79012B05D1094B1B680133084A62
:101D1000136004E0064B1B68013B054A136000BFDB
:101D20000837BD4680BD00BF000C024018000020EF
:101D3000AC01002080B500AF012001F05DFC03463E
:101D4000002B04D0FFF7F0FE012001F079FC00BF6A
:101D500080BD80B500AF022001F04EFC0346002B91
:101D600004D0FFF715FF022001F06AFC00BF80BD20
:101D700080B500AF042001F03FFC0346002B04D0E7
:101D8000FFF73AFF042001F05BFC00BF80BD80B587
:101D900000AF082001F030FC0346002B04D0FFF711
:101DA0005FFF082001F04CFC00BF80BD80B500AF94
:101DB0004FF4007001F020FC0346002B05D0FFF724
:101DC00083FF4FF4007001F03BFC00BF80BD0000BA
:101DD00080B483B000AF03463960FB7197F90730D8
:101DE000002B0BDA0D49FB7903F00F03043B3A6833
:101DF000D2B21201D2B20B441A7609E0084997F91F
:101E000007303A68D2B21201D2B20B4483F80023F1
:101E100000BF0C37BD4680BC704700BF00ED00E03E
:101E200000E100E080B582B000AF78607B68B3F17C
:101E3000807F01D3012311E00A4A7B6823F07F43AE
:101E4000013B53600F214FF0FF30FFF7C1FF054BFF
:101E500000229A60034B07221A60002318460837B5
:101E6000BD4680BD10E000E080B483B000AF786074
:101E70007B684FF47A7202FB03F3064A136000BFDB
:101E8000044B1B68002BFBD100BF0C37BD4680BC48
:101E9000704700BFA800002080B400AF0D4B1B6846
:101EA00001330C4A13600C4B1B68002B04D00A4B07
:101EB0001B68013B084A1360084B1B68002B04D0C9
:101EC000064B1B68013B054A136000BFBD4680BC42
:101ED000704700BFAC000020B0000020A800002028
:101EE00080B500AF0F4B1B78002B19D10120FEF7F6
:101EF00033FF00BFFEF742FF0346002BFAD00A4B28
:101F00001B680A4AA2FB03239B0C1846FFF78AFFB3
:101F10000346002B00D0FEE7024B01221A7000E0BE
:101F200000BF80BDB40000209400002083DE1B436E
:101F300080B582B000AF40F225511948FEF7B1FBE1
:101F40000346002B04D01648FEF755FB0346FB71F1
:101F5000144B1B784C2B06D1134AFB791370114B91
:101F600000221A7018E00F4B1B78522B06D10F4A33
:101F7000FB7913700B4B00221A700DE0094B1B7894
:101F8000462B06D10A4AFB791370064B00221A70C1
:101F900002E0044AFB79137000BF0837BD4680BDDC
:101FA000004C0040B0010020B5000020B600002029
:101FB000B700002080B487B000AF7860396000239C
:101FC0007B6100233B610023FB6000237B6176E0A3
:101FD00001227B6902FA03F33B613B681A683B69A3
:101FE0001340FB60FA683B699A4265D17B681A68C6
:101FF0007B695B00032101FA03F3DB431A407B6832
:102000001A607B681A683B681B7919467B695B001C
:1020100001FA03F31A437B681A603B681B79012BB2
:1020200003D03B681B79022B2ED17B689A687B69B1
:102030005B00032101FA03F3DB431A407B689A60DB
:102040007B689A683B685B7919467B695B0001FA9B
:1020500003F31A437B689A607B685A687B699BB27A
:10206000194601238B40DB431A407B685A607B682A
:102070005B683A68927911467A6992B201FA02F283
:1020800092B21A437B685A607B68DA687B699BB2BC
:102090005B00032101FA03F3DB431A407B68DA603B
:1020A0007B68DA683B68DB7919467B695B0001FA7B
:1020B00003F31A437B68DA607B6901337B617B69D8
:1020C0000F2B85D900BF1C37BD4680BC704780B43C
:1020D00085B000AF78600B467B800023FB737B6884
:1020E0001A697B881340002B02D00123FB7301E0A7
:1020F0000023FB73FB7B18461437BD4680BC70473A
:1021000080B483B000AF78600B467B807B687A88B0
:102110001A8300BF0C37BD4680BC704780B483B0C3
:1021200000AF78600B467B807B687A885A8300BF5B
:102130000C37BD4680BC704780B485B000AF786076
:102140000B467B8013467B700023FB600023BB6043
:102150007A787B8803F007039B0002FA03F3FB60A5
:102160007B88DB089BB218467B88DB089BB21A464B
:102170007B68083253F822207B8803F007039B001A
:102180000F2101FA03F3DB4302EA03017B6800F14C
:10219000080243F822107B88DB089BB21A467B6852
:1021A000083253F82220FB681343BB607B88DB08AE
:1021B0009BB21A467B680832B96843F8221000BF08
:1021C0001437BD4680BC704780B582B000AF012196
:1021D0000220FEF7A3FE40F203333B6002237B7133
:1021E00001233B710023BB710023FB713B46194661
:1021F0000348FFF7DFFE00BF0837BD4680BD00BFC4
:102200000004024080B582B000AF01211020FEF72B
:1022100085FE4FF400633B6002237B7101233B7119
:102220000023BB710023FB713B4619460C48FFF7A6
:10223000C1FE01210120FEF771FE40233B60022315
:102240007B7101233B710023BB710023FB713B4673
:1022500019460448FFF7AEFE00BF0837BD4680BDF3
:10226000001002400000024080B500AF0221094882
:10227000FFF746FF01210748FFF750FF4FF40071B9
:102280000448FFF73DFF4FF480710248FFF746FF17
:1022900000BF80BD0004024080B500AF02210948A4
:1022A000FFF73CFF01210748FFF738FF4FF40071AB
:1022B0000448FFF733FF4FF480710248FFF72EFF09
:1022C00000BF80BD0004024080B500AF00F044F8BC
:1022D0000B4800F01EFA00F0E5F8282000F016F98F
:1022E000062000F013F90C2000F010F9012000F096
:1022F0000DF94CF2503000F00CFA00BF80BD00BF69
:10230000A086010080B500AF012000F0FFF84CF27C
:10231000503000F0FEF900BF80BD80B582B000AF44
:1023200003463A60FB710B46BB71BA79FB791146E3
:10233000184600F0C9F907E03B681B78184600F022
:1023400054F93B6801333B603B681B78002BF3D1A9
:1023500000BF0837BD4680BD80B584B000AF002304
:10236000FB7343E0FA7B254913469B0013449B0013
:102370000B440C331B6801211846FEF7CFFDFA7B96
:102380001E4913469B0013449B000B4408331B88D3
:102390007B6001233B720023BB720123FB7202238B
:1023A0007B72FA7B154913469B0013449B000B4438
:1023B00004331B683A1D11461846FFF7FBFDFA7BF4
:1023C0000E4913469B0013449B000B4410331B78AB
:1023D000002B04D1FB7B184600F012F803E0FB7BD6
:1023E000184600F02DF8FB7B0133FB73FB7B052BBC
:1023F000B8D900BF1037BD4680BD00BF1C0000200B
:1024000080B483B000AF0346FB71FA790B491346E1
:102410009B0013449B000B4404331968FA79074866
:1024200013469B0013449B00034408331B884B83D3
:1024300000BF0C37BD4680BC704700BF1C000020A9
:1024400080B483B000AF0346FB71FA790B491346A1
:102450009B0013449B000B4404331968FA79074826
:1024600013469B0013449B00034408331B880B83D3
:1024700000BF0C37BD4680BC704700BF1C00002069
:1024800080B500AF0120FFF7DBFF4FF47A7000F05A
:1024900040F90120FFF7B4FF4FF47A7000F039F9EA
:1024A00000BF80BD80B500AF0220FFF7C9FF032049
:1024B000FFF7C6FF0420FFF7A3FF0520FFF7A0FFEB
:1024C000FFF7DEFF4CF2503000F023F9FFF7D8FFA2
:1024D0004CF2503000F01DF9FFF7D2FF4CF25030B3
:1024E00000F017F90220FFF78BFF0320FFF7A8FF8A
:1024F0000420FFF785FF0520FFF782FFFFF7C0FFED
:102500004CF2503000F005F900BF80BD80B582B0BC
:1025100000AF0346FB710020FFF772FF97F9073009
:10252000002B03DA0520FFF78BFF02E00520FFF701
:1025300067FFFB7903F04003002B03D00420FFF773
:102540007FFF02E00420FFF75BFFFB7903F020032D
:10255000002B03D00320FFF773FF02E00320FFF7F7
:102560004FFFFB7903F01003002B03D00220FFF78D
:1025700067FF02E00220FFF743FFFFF781FFFB79CF
:1025800003F00803002B03D00520FFF759FF02E0FA
:102590000520FFF735FFFB7903F00403002B03D080
:1025A0000420FFF74DFF02E00420FFF729FFFB792D
:1025B00003F00203002B03D00320FFF741FF02E0EA
:1025C0000320FFF71DFFFB7903F00103002B03D06D
:1025D0000220FFF735FF02E00220FFF711FFFFF7AF
:1025E0004FFF00BF0837BD4680BD80B582B000AF49
:1025F0000346FB710020FFF723FF97F90730002BFC
:1026000003DA0520FFF71CFF02E00520FFF7F8FEC4
:10261000FB7903F04003002B03D00420FFF710FFE9
:1026200002E00420FFF7ECFEFB7903F02003002B0F
:1026300003D00320FFF704FF02E00320FFF7E0FED2
:10264000FB7903F01003002B03D00220FFF7F8FE04
:1026500002E00220FFF7D4FEFFF712FFFB7903F040
:102660000803002B03D00520FFF7EAFE02E0052057
:10267000FFF7C6FEFB7903F00403002B03D0042010
:10268000FFF7DEFE02E00420FFF7BAFEFB7903F05D
:102690000203002B03D00320FFF7D2FE02E0032049
:1026A000FFF7AEFEFB7903F00103002B03D00220FD
:1026B000FFF7C6FE02E00220FFF7A2FEFFF7E0FEF2
:1026C00000BF0837BD4680BD80B584B000AF03466B
:1026D0000A46FB711346BB71FB790F2B01D900230E
:1026E000FB71BB79012B01D90023BB71BB799B0125
:1026F000FB73FA7BFB791343FB73FB7B63F07F0374
:10270000FB73FB7B1846FFF701FF00BF1037BD4688
:1027100080BD80B483B000AF786000BF7B685A1E74
:102720007A60002BFAD100BF0C37BD4680BC7047E1
:1027300080B582B000AF01210420FEF7EFFB4FF41B
:1027400068733B6000233B7103237B710023BB71E3
:102750000223FB713B4619460348FFF72BFC00BFE1
:102760000837BD4680BD00BF00080240B0B500AFCD
:10277000FFF7C8FD1D4B1B68002B07D11C4A1D4BE2
:1027800003CB106051601B78137218E0174B1B6865
:10279000012B07D1164A184B03CB106051601B88E0
:1027A00013810CE0114B1B68022B08D1104A134B0C
:1027B00003CB1060516019889B78118193720C4A89
:1027C00000210020FFF7A9FD094A0D4B15461C46C4
:1027D0000FCC28606960AA60EB6023782B74044AF0
:1027E00001210020FFF799FD00BFB0BDC800002007
:1027F000B4010020B8620008C4620008D06200087A
:10280000DC62000880B500AF124A124B1B6843F02F
:10281000010313600F4B00229A600E4A0D4B1B6898
:1028200023F0847323F4803313600A4B0A4A5A60FE
:10283000084A084B1B6823F480231360054B0022D1
:10284000DA6000F00DF8054B4FF000629A6000BFAF
:1028500080BD00BF003802401030002400ED00E0D1
:1028600080B483B000AF00237B6000233B60354A17
:10287000344B1B6843F480331360324B1B6803F402
:1028800000333B607B6801337B603B68002B03D1E6
:102890007B68B3F5A06FF0D12A4B1B6803F40033BB
:1028A000002B02D001233B6001E000233B603B682A
:1028B000012B42D1234A234B1B6C43F080531364FA
:1028C000214A214B1B6843F4804313601D4A1D4B72
:1028D0009B6893601B4A1B4B9B6843F400439360C7
:1028E000184A184B9B6843F4A0539360154B174A42
:1028F0005A60144A134B1B6843F08073136000BF87
:10290000104B1B6803F00073002BF9D0104B40F202
:1029100005621A600B4A0B4B9B6823F0030393601C
:10292000084A084B9B6843F00203936000BF054BC5
:102930009B6803F00C03082BF9D100BF0C37BD4690
:1029400080BC7047003802400070004019544007B6
:10295000003C024080B588B000AF01210220FEF7A4
:10296000DDFA01214FF48020FEF7F6FA4FF44063C0
:102970007B6102237B7602233B760023BB76012317
:10298000FB7607F1140319461E48FFF713FB0722D5
:102990000A211C48FFF7D0FB07220B211948FFF73B
:1029A000CBFB4FF416537B6000233B8100237B81DC
:1029B0000023BB8100233B820C23FB813B1D194676
:1029C0001148FDF73FFD01210F48FDF7F5FD0122FC
:1029D00040F225510C48FDF71DFE27233B770023CD
:1029E0007B770023BB770123FB7707F11C03184695
:1029F00000F034FE01210448FDF7DEFD00BF203762
:102A0000BD4680BD000402400048004080B582B051
:102A100000AF40F225513348FDF743FE0346002B3B
:102A200004D03048FDF7E7FD0346FB712E4B1B78C1
:102A3000582B06D12D4AFB7913702B4B00221A70AC
:102A40004BE0294B1B78592B06D1294AFB7913708F
:102A5000254B00221A7040E0234B1B78432B2ED1CC
:102A6000244AFB791370234B1B781A464FF4B47336
:102A700003FB02F3204A82FB03121A44D211DB1734
:102A8000D31A1E4A13601D4B1B68083B1B4A136078
:102A90001A4B1B68002B06DA184B1B6803F5B4733E
:102AA000164A136007E0154B1B68B3F5B47F02DBD1
:102AB000124B00221A600C4B00221A700DE00A4BD8
:102AC0001B78422B06D10E4AFB791370064B00226D
:102AD0001A7002E0044AFB79137000BF0837BD4644
:102AE00080BD00BF00480040B0010020C5010020AB
:102AF000C40100208801002081808080C80100205E
:102B0000C601002080B483B000AF78607B685AB201
:102B1000034B1A7000BF0C37BD4680BC704700BF26
:102B2000E401002080B584B000AF01210120FEF750
:102B300013FA49F68313BB800023FB800923BB6093
:102B40000023BB810023BB733B1D19464FF080401F
:102B500000F032FF01214FF0804000F097FF01228A
:102B600001214FF0804001F00FFA00BF1037BD4641
:102B700080BD80B582B000AF1C233B7100237B7108
:102B80000123BB710123FB713B1D184600F066FD5C
:102B900000BF0837BD4680BDB0B500AF01214FF082
:102BA000804001F014FA0346002B00F069830121F4
:102BB0004FF0804001F034FAAD48FEF7D9FEAC4B3F
:102BC0005A6813461B019B1A9B00184602F078FDB9
:102BD000A5A3D3E9002302F0D9FD03460C4618460D
:102BE000214603F06DF80246A24B1A60A24BB3F9DE
:102BF00000309AB29F4B1B689BB2D31A9BB21AB299
:102C00009E4B1A809D4BB3F900309AB29C4BB3F99E
:102C100000309BB2D31A9BB21AB29A4B1A809A4BCD
:102C2000B3F900309AB2954BB3F900309BB213441C
:102C30009BB21AB2944B1A80944B1B68184603F04F
:102C400071F904468D4BB3F90030184603F06AF968
:102C500003468F49184603F0B9F903461D46894BD0
:102C6000B3F90030184603F05DF903468949184668
:102C700003F0ACF903461946284603F09FF80346D3
:102C80001D46814BB3F90030184603F04BF903465B
:102C90004FF00001184603F099F9034619462846FB
:102CA00003F08CF803461946204603F087F80346E4
:102CB000184603F0DBFA0246744B1A60734B1B682C
:102CC0004FF6FE72934203DD704B4FF6FE721A60B0
:102CD0006E4B1B6819460120FDF7ECFE674BB3F9FC
:102CE0000020674B1A806C48FEF76EFE6A4B5A68EC
:102CF00013461B019B1A9B00184602F0E1FC5AA3E5
:102D0000D3E9002302F042FD03460C461846214653
:102D100002F0D6FF0246614B1A60614BB3F90030F6
:102D20009AB25E4B1B689BB2D31A9BB21AB25D4B30
:102D30001A805C4BB3F900309AB25B4BB3F90030A8
:102D40009BB2D31A9BB21AB2584B1A80584BB3F9A4
:102D500000309AB2534BB3F900309BB213449BB28C
:102D60001AB2534B1A80534B1B68184603F0DAF81B
:102D700004464C4BB3F90030184603F0D3F8034631
:102D80004349184603F022F903461D46474BB3F961
:102D90000030184603F0C6F803463E49184603F0D3
:102DA00015F903461946284603F008F803461D4660
:102DB0003F4BB3F90030184603F0B4F803464FF028
:102DC0000001184603F002F903461946284602F0AE
:102DD000F5FF03461946204602F0F0FF0346184669
:102DE00003F044FA0246334B1A60324B1B684FF62D
:102DF000FE72934203DD2F4B4FF6FE721A602D4B8D
:102E00001B6819460220FDF755FE264BB3F900203A
:102E1000254B1A802848FEF703FE274B5A681346B5
:102E20001B019B1A9B00184602F04AFC0EA3D3E933
:102E3000002302F0ABFC03460C461846214602F084
:102E40003FFF02461D4B1A601D4BB3F900309AB28A
:102E50001A4B1B689BB2D31A9BB21AB2194B1A8039
:102E600032E000BFAFF30080EC51B81E85EBF53FB8
:102E7000E8010020F4000020F0000020F80000200D
:102E8000FA000020FC000020FE000020EC000020E2
:102E90000000A04000002041CC01002008010020DB
:102EA000040100200C0100200E0100201001002070
:102EB0001201002000010020F40100201C0100206C
:102EC0001801002020010020AB4BB3F900309AB26A
:102ED000AA4BB3F900309BB2D31A9BB21AB2A84BDB
:102EE0001A80A84BB3F900309AB2A34BB3F9003063
:102EF0009BB213449BB21AB2A24B1A80A24B1B681E
:102F0000184603F00FF804469B4BB3F900301846FF
:102F100003F008F803469D49184603F057F80346A6
:102F20001D46974BB3F90030184602F0FBFF0346ED
:102F30009749184603F04AF803461946284602F016
:102F40003DFF03461D468F4BB3F90030184602F093
:102F5000E9FF03464FF00001184603F037F8034637
:102F60001946284602F02AFF03461946204602F079
:102F700025FF0346184603F079F90246824B1A6092
:102F8000814B1B684FF6FE72934203DD7E4B4FF67A
:102F9000FE721A607C4B1B6819460320FDF78AFD00
:102FA000754BB3F90020754B1A807A48FEF764FD23
:102FB000784B5A6813461B019B1A9B00184602F077
:102FC0007FFB6BA3D3E9002302F0E0FB03460C4632
:102FD0001846214602F074FE02466F4B1A606F4B92
:102FE000B3F900309AB26C4B1B689BB2D31A9BB2F8
:102FF0001AB26B4B1A806A4BB3F900309AB2694B24
:10300000B3F900309BB2D31A9BB21AB2664B1A8046
:10301000664BB3F900309AB2614BB3F900309BB202
:1030200013449BB21AB2614B1A80614B1B6818465D
:1030300002F078FF04465A4BB3F90030184602F00C
:1030400071FF03465149184602F0C0FF03461D4672
:10305000554BB3F90030184602F064FF03464C4963
:10306000184602F0B3FF03461946284602F0A6FEB2
:1030700003461D464D4BB3F90030184602F052FF8F
:1030800003464FF00001184602F0A0FF0346194620
:10309000284602F093FE03461946204602F08EFEB3
:1030A0000346184603F0E2F80246414B1A60404BD3
:1030B0001B684FF6FE72934203DD3D4B4FF6FE72E6
:1030C0001A603B4B1B6819460420FDF7F3FC344B98
:1030D000B3F90020334B1A803648FEF7F9FC354B24
:1030E0005A6813461B019B1A9B00184602F0E8FA27
:1030F0001FA3D3E9002302F049FB03460C46184600
:10310000214602F0DDFD02462B4B1A602B4BB3F932
:1031100000309AB2284B1B689BB2D31A9BB21AB2EA
:10312000274B1A80264BB3F900309AB2254BB3F9DE
:1031300000309BB2D31A9BB21AB2234B1A80234B96
:10314000B3F900309AB21E4BB3F900309BB213446E
:103150009BB21AB21D4B1A801D4B1B68184602F019
:10316000E1FE0446164BB3F90030184632E000BFCA
:10317000EC51B81E85EBF53F200100202201002014
:103180002401002026010020140100200000A0409E
:1031900000002041D8010020300100202C01002037
:1031A0003401002036010020380100203A010020BF
:1031B000280100201C0200204401002040010020C2
:1031C000480100204A0100204C0100204E0100204F
:1031D0003C01002002F0A6FE03462A49184602F0F0
:1031E000F5FE03461D46284BB3F90030184602F0A1
:1031F00099FE03462549184602F0E8FE03461946A3
:10320000284602F0DBFD03461D46214BB3F9003092
:10321000184602F087FE03464FF00001184602F000
:10322000D5FE03461946284602F0C8FD0346194656
:10323000204602F0C3FD0346184603F017F8024685
:10324000144B1A60134B1B684FF6FE72934203DD5A
:10325000104B4FF6FE721A600E4B1B681846FDF7B6
:10326000C5FC0D4BB3F900200C4B1A800C4B93F9A5
:1032700000301A460B4B5B681946104600F0BEFA48
:1032800000BFB0BD0000A0404C0100200000204164
:103290004E0100203C010020480100204A0100208E
:1032A000E4010020D801002080B485B000AF7B602D
:1032B0000346FB810B46BB8113467B81084AFB8991
:1032C0001380084ABB891380074A7B8913807B6877
:1032D0001AB2064B1A8000BF1437BD4680BC704737
:1032E000F000002004010020180100202C01002023
:1032F00080B500AFFFF716FCFFF73BFC0A48FEF76E
:103300008FF90A48FEF7E0F90948FEF731FA094853
:10331000FEF782FA0848FEF7D3FAFDF795FAFDF7B3
:10332000D7FA00BF80BD00BFE8010020CC0100201B
:10333000F4010020D80100201C02002080B582B0DA
:1033400000AF78607B689BB25B429BB218B27B682F
:103350009BB25B429BB219B27B681AB27B68FFF7E3
:10336000A3FF034B00221A7000BF0837BD4680BD83
:10337000E401002080B582B000AF78607B6818B2AD
:103380007B6819B27B689BB25B429BB21AB27B68C6
:103390005B42FFF789FF0020FFF7B4FB00BF08374F
:1033A000BD4680BD80B582B000AF78607B6818B242
:1033B0007B689BB25B429BB219B27B689BB25B425B
:1033C0009BB21AB27B68FFF76FFF0020FFF79AFBF2
:1033D00000BF0837BD4680BD80B582B000AF7860C1
:1033E0007B689BB25B429BB218B27B6819B27B6868
:1033F0001AB27B685B42FFF757FF0020FFF782FBA2
:1034000000BF0837BD4680BD80B582B000AF786090
:103410007B689BB25B429BB219B27B6800220020A2
:10342000FFF742FF0020FFF76DFB00BF0837BD46E6
:1034300080BD80B582B000AF78607B6819B27B68D0
:103440005B4200220020FFF72FFF0020FFF75AFB0E
:1034500000BF0837BD4680BD80B582B000AF786040
:103460007B689BB25B429BB218B27B681AB20023A6
:103470000021FFF719FF0020FFF744FB00BF0837CA
:10348000BD4680BD80B582B000AF78607B6818B261
:103490007B689BB25B429BB21AB200230021FFF70C
:1034A00003FF0020FFF72EFB00BF0837BD4680BD9D
:1034B00080B582B000AF78607B689BB25B429BB204
:1034C00018B27B689BB25B429BB219B27B689BB21D
:1034D0005B429BB21AB27B685B42FFF7E5FE0120BC
:1034E000FFF710FB00BF0837BD4680BD80B582B036
:1034F00000AF78607B6818B27B6819B27B681AB23B
:103500007B68FFF7D1FE0120FFF7FCFA00BF083708
:10351000BD4680BD80B485B000AF78600023FB60FD
:10352000344BFB607B689B79002B4FD03149314B8A
:103530001A687B681B68DB4313400B602D492D4BD9
:103540005A687B681B68DB4313404B607B681B79C0
:103550001A46FB681344FB60FB68FA6811687A68D6
:1035600012680A431A602349224B9A687B681B68D9
:10357000DB4313408B601F491E4BDA687B681B6876
:10358000DB431340CB607B685B79102B0ED119496C
:10359000184B9A687B681B6813438B601549154B61
:1035A000DA687B681B681343CB601DE0114BFB603E
:1035B0007B685B791A46FB681344FB60FB68FA681A
:1035C00011687A6812680A431A600DE07B681B79FB
:1035D0001A46FB681344FB60FB68FA6811687A6856
:1035E0001268D2430A401A6000BF1437BD4680BC3F
:1035F000704700BF003C014080B485B000AF7860E8
:103600000023FB730023BB600C4B1A687B681340DC
:10361000BB600A4B5A697B681340002B05D0BB681E
:10362000002B02D00123FB7301E00023FB73FB7B23
:1036300018461437BD4680BC704700BF003C0140AF
:1036400080B483B000AF7860034A7B68536100BFE9
:103650000C37BD4680BC7047003C014080B485B04B
:1036600000AF78600023FB730023BB730F237B73D1
:103670007B68DB78002B39D0274BDB68DB431B0AE8
:10368000DBB203F00703FB73FB7BC3F10403BB73E3
:103690007A7BFB7B42FA03F37B737B685B781A4689
:1036A000BB7B02FA03F3FB737B689A787B7B134046
:1036B000DAB2FB7B1343FB73FB7B1B01FB73174AE3
:1036C0007B681B781344FA7B83F80023134A7B68DA
:1036D0001B785B09DBB218467B681B7803F01F037D
:1036E000012101FA03F342F820300FE00B497B6817
:1036F0001B785B09DBB218467B681B7803F01F035D
:1037000001229A4000F1200341F8232000BF143722
:10371000BD4680BC704700BF00ED00E000E100E066
:1037200080B584B002AFFEF7EDFD1A4B1B6818465A
:1037300002F09CFD03467B60174B1B68184602F0A5
:1037400095FD03463B60154B1A68154B1B781946CF
:10375000052300930B4613491348FDF74AFF124A0D
:1037600000210020FEF7D9FD0D4B1B781A460F4BA8
:103770001B780093134641220D490B48FDF739FF92
:10378000094A01210020FEF7C8FD00BF0837BD46E9
:1037900080BD00BF70020020A8020020C8010020E8
:1037A000C4010020F062000830020020C5010020A2
:1037B0000063000880B586B000AF01210420FDF74A
:1037C000ADFB01214FF48040FDF7E4FB4FF40053C3
:1037D0003B6100233B7503237B750023BB750223EC
:1037E000FB7507F1100319460348FEF7E3FB00BF22
:1037F0001837BD4680BD00BF000802402DE9B04328
:1038000082B000AF786039607B68012B61D0386886
:1038100002F088FB0246334B1A60334B1B68184694
:1038200001F060FF04460D462E4B1B68184601F060
:1038300059FF804689462D4B1B68184601F040FF12
:1038400002460B461046194600F0FAFB02460B46AC
:103850004046494601F09AFF02460B46204629465B
:1038600001F0E2FD03460C461846214602F050FAEC
:1038700002461D4B1A601E4B1B68184601F032FFB2
:1038800004460D46174B1B68184601F02BFF804677
:103890008946164B1B68184601F012FF02460B467C
:1038A0001046194600F01AFC02460B4640464946AF
:1038B00001F06CFF02460B462046294601F0B4FD9C
:1038C00003460C461846214602F022FA0246084BEF
:1038D0001A60044B1B68074A136000BF0837BD46D7
:1038E000BDE8B0834C02002070020020C801002017
:1038F000A80200206C02002080B584B000AF012136
:103900000820FDF729FB4AF20F43BB800023FB8010
:1039100040F2E733BB600023BB810023BB733B1D38
:103920001946084800F048F80121064800F0AEF8B2
:1039300001220121034800F027FB00BF1037BD46DC
:1039400080BD00BF000C004080B582B000AF3223C4
:103950003B7100237B710023BB710123FB713B1D75
:103960001846FFF77BFE00BF0837BD4680BD00004C
:1039700080B500AF01210A4800F029FB0346002B67
:103980000CD00121064800F04BFB064B1B68002BB6
:1039900002D1FEF7EBFE01E0FFF7C2FE00BF80BDE3
:1039A000000C0040CC00002080B500AFFFF7A4FF62
:1039B000FFF7CAFF00BF80BD80B485B000AF78605C
:1039C00039600023FB817B681B88FB817B68284A68
:1039D000934213D07B68274A93420FD07B68B3F1A0
:1039E000804F0BD07B68244A934207D07B68234AE0
:1039F000934203D07B68224A934208D1FB8923F08B
:103A00007003FB813B685A88FB891343FB817B6809
:103A10001C4A93420CD07B681B4A934208D0FB8916
:103A200023F44073FB813B681A89FB891343FB81B4
:103A30007B68FA891A803B685A687B68DA623B685F
:103A40001A887B681A857B68094A934203D07B6891
:103A5000084A934204D13B689B7A9AB27B681A86E3
:103A60007B6801229A8200BF1437BD4680BC704734
:103A70000000014000040140000400400008004034
:103A8000000C0040001000400014004080B483B0DF
:103A900000AF78600B46FB70FB78002B08D07B688A
:103AA0001B889BB243F001039AB27B681A8007E03F
:103AB0007B681B889BB223F001039AB27B681A8053
:103AC00000BF0C37BD4680BC7047000080B485B095
:103AD00000AF7860396000237B810023FB810023E5
:103AE000BB817B681B8C9BB223F001039AB27B687D
:103AF0001A847B681B8CFB817B689B88BB817B68FD
:103B00001B8B7B817B8923F070037B817B8923F076
:103B100003037B813B681A887B8913437B81FB8984
:103B200023F00203FB813B689A89FB891343FB81E5
:103B30003B685A88FB891343FB817B681E4A93428A
:103B400003D07B681D4A934223D1FB8923F00803ED
:103B5000FB813B68DA89FB891343FB81FB8923F0F6
:103B60000403FB813B689A88FB891343FB81BB8973
:103B700023F48073BB81BB8923F40073BB813B6852
:103B80001A8ABB891343BB813B685A8ABB8913439A
:103B9000BB817B68BA899A807B687A891A833B6883
:103BA0009A687B685A637B68FA891A8400BF143765
:103BB000BD4680BC704700BF0000014000040140CA
:103BC00080B485B000AF7860396000237B8100232A
:103BD000FB810023BB817B681B8C9BB223F010030D
:103BE0009AB27B681A847B681B8CFB817B689B88FC
:103BF000BB817B681B8B7B817B8923F4E0437B81CA
:103C00007B8923F440737B813B681B881B029AB23B
:103C10007B8913437B81FB8923F02003FB813B6875
:103C20009B891B019AB2FB891343FB813B685B882C
:103C30001B019AB2FB891343FB817B68224A9342A2
:103C400003D07B68214A93422BD1FB8923F0800368
:103C5000FB813B68DB891B019AB2FB891343FB8123
:103C6000FB8923F04003FB813B689B881B019AB2D0
:103C7000FB891343FB81BB8923F48063BB81BB8930
:103C800023F40063BB813B681B8A9B009AB2BB890B
:103C90001343BB813B685B8A9B009AB2BB89134389
:103CA000BB817B68BA899A807B687A891A833B6872
:103CB0009A687B689A637B68FA891A8400BF143714
:103CC000BD4680BC704700BF0000014000040140B9
:103CD00080B485B000AF7860396000237B81002319
:103CE000FB810023BB817B681B8C9BB223F4807318
:103CF0009AB27B681A847B681B8CFB817B689B88EB
:103D0000BB817B689B8B7B817B8923F070037B81EC
:103D10007B8923F003037B813B681A887B891343EB
:103D20007B81FB8923F40073FB813B689B891B0229
:103D30009AB2FB891343FB813B685B881B029AB2F2
:103D4000FB891343FB817B68224A934203D07B6843
:103D5000214A93422BD1FB8923F40063FB813B680A
:103D6000DB891B029AB2FB891343FB81FB8923F495
:103D70008063FB813B689B881B029AB2FB891343DB
:103D8000FB81BB8923F48053BB81BB8923F400539F
:103D9000BB813B681B8A1B019AB2BB891343BB8161
:103DA0003B685B8A1B019AB2BB891343BB817B686A
:103DB000BA899A807B687A899A833B689A687B681B
:103DC000DA637B68FA891A8400BF1437BD4680BC69
:103DD000704700BF000001400004014080B485B07E
:103DE00000AF786039600023BB8100237B81002312
:103DF000FB817B681B8C9BB223F480539AB27B6857
:103E00001A847B681B8C7B817B689B88FB817B6829
:103E10009B8BBB81BB8923F4E043BB81BB8923F42B
:103E20004073BB813B681B881B029AB2BB8913435A
:103E3000BB817B8923F400537B813B689B891B03F7
:103E40009AB27B8913437B813B685B881B039AB2E0
:103E50007B8913437B817B68114A934203D07B6843
:103E6000104A93420AD1FB8923F48043FB813B68CB
:103E70001B8A9B019AB2FB891343FB817B68FA89F9
:103E80009A807B68BA899A833B689A687B681A64CF
:103E90007B687A891A8400BF1437BD4680BC70479E
:103EA000000001400004014080B485B000AF78609C
:103EB0000B467B800023FB817B681B8BFB81FB898E
:103EC00023F00803FB81FA897B881343FB817B681D
:103ED000FA891A8300BF1437BD4680BC704780B48E
:103EE00085B000AF78600B467B800023FB817B6848
:103EF0001B8BFB81FB8923F40063FB817B881B0206
:103F00009AB2FB891343FB817B68FA891A8300BF4D
:103F10001437BD4680BC704780B485B000AF786070
:103F20000B467B800023FB817B689B8BFB81FB899D
:103F300023F00803FB81FA897B881343FB817B68AC
:103F4000FA899A8300BF1437BD4680BC704780B49D
:103F500085B000AF78600B467B800023FB817B68D7
:103F60009B8BFB81FB8923F40063FB817B881B0215
:103F70009AB2FB891343FB817B68FA899A8300BF5D
:103F80001437BD4680BC704780B483B000AF786002
:103F90000B467B8013467B707B78002B08D07B68B8
:103FA0009B899AB27B8813439AB27B689A8109E015
:103FB0007B689B899AB27B88DB439BB213409AB2A1
:103FC0007B689A8100BF0C37BD4680BC704780B4C7
:103FD00085B000AF78600B467B800023FB73002325
:103FE000BB8100237B817B681B8A9AB27B8813404C
:103FF000BB817B689B899AB27B8813407B81BB899C
:10400000002B05D07B89002B02D00123FB7301E03C
:104010000023FB73FB7B18461437BD4680BC7047FA
:1040200080B483B000AF78600B467B807B88DB4335
:104030009AB27B681A8200BF0C37BD4680BC7047BD
:1040400030B5224A21F00043934287B01BDD204A5D
:10405000934205DD02460B4601F0E4F907B030BD9E
:1040600002AA00F081F800F00303012B1AD0022B02
:104070000FD01BB30124DDE90423DDE90201009424
:1040800001F002F8EAE70022002300F091FA07B0FD
:1040900030BDDDE90423DDE9020100F089FA01F118
:1040A0000041DBE7DDE904450093DDE9020122463A
:1040B0002B4600F0E9FF01F10041CFE7DDE90423E1
:1040C000DDE9020100F074FAC8E700BFFB21E93F17
:1040D000FFFFEF7F21F00041704700BF30B51F4A5E
:1040E00021F00043934287B01BDD1D4A934205DD5A
:1040F00002460B4601F096F907B030BD02AA00F067
:1041000033F800F003000128DDE904231AD0022867
:104110000FD0E0B1DDE9020100F04AFA01F10041FF
:10412000EAE7002300930022002300F0ADFF07B070
:1041300030BD0124DDE90201009400F0A5FF01F18A
:104140000041D9E7DDE9020100F032FAD4E70124A9
:10415000DDE90201009400F097FFCDE7FB21E93F84
:10416000FFFFEF7F000000002DE9F04F9A4E21F095
:104170000047B74291B040F38E809246974A9742EB
:104180000C4626DC00298AA3D3E9002340F3B4813E
:1041900001F048F9924B9F4204460D4600F0908092
:1041A00085A3D3E9002301F03DF902460B46CAE995
:1041B00000232046294601F035F97FA3D3E90023E7
:1041C00001F030F90125CAE90201284611B0BDE825
:1041D000F08F844A974240F39080834A974265DC8F
:1041E0003D15A5F21645A7EB055319461F46064691
:1041F00001F066FD01F064FA8046894602460B46EE
:1042000030463946CDE90A8901F00CF90022774B96
:1042100001F0BCFA8946804601F052FD01F050FAE7
:1042200002460B4606460F4640464946CDE90C6716
:1042300001F0F8F800226D4B01F0A8FA00220023EB
:10424000CDE90E0101F00AFD002800F07381002382
:1042500030463946002201F001FD002814BF012339
:104260000223634A019202212A4600910AA851467C
:1042700000F0C2FA002C054614DADAF80420DAF865
:104280000C3002F1004203F100434542CAF8042019
:10429000CAF80C3006E0C2E9000100250024C2E99A
:1042A00002450025284611B0BDE8F08F02460B46B6
:1042B00001F0B8F80025CAE90201CAE90001F1E7F6
:1042C0003FA3D3E9002301F0ADF83FA3D3E90023D6
:1042D0000D46044601F0A6F802460B46CAE9002343
:1042E0002946204601F09EF837A3D3E9002301F0C8
:1042F00099F80125CAE90201D4E7FFF7EBFE34A3E0
:10430000D3E900238046894601F040FA0022394B68
:1043100001F08AF801F0D4FC054601F0D1F924A39C
:10432000D3E90023CDE9040101F030FA02460B463F
:104330004046494601F076F81FA3D3E900238046A2
:104340008946DDE9040101F021FA1F2DCDE90201C2
:1043500054DC294B6A1E53F822309F424ED002464D
:104360000B464046494601F05DF802460B46CAE955
:10437000002383460E465A4633464046494601F0DE
:1043800051F8DDE9022301F04DF8002C02460B46FE
:10439000CAE9022386DA5B4606F1004601F10041D4
:1043A0008AE84800CAF80C10CAF808006D4279E79C
:1043B00000004054FB21F93F3163621A61B4D03DE3
:1043C0000000601A61B4D03D7370032E8A19A33BBC
:1043D00083C8C96D305FE43FFB21E93F7BD90240D0
:1043E000FB21F93FFB213941FFFFEF7F00007041C6
:1043F000906300080000E03F10630008DDE902233D
:104400004046494601F00EF83A15C1F30A53D31A53
:10441000102B83460E460992CAE90001ABDD58A372
:10442000D3E90023DDE9040101F0B0F906460F46A7
:1044300002460B464046494600F0F4FFCDE906012E
:1044400002460B464046494600F0ECFF32463B46EA
:1044500000F0E8FF4CA3D3E9002306460F46DDE950
:10446000040101F093F932463B4600F0DBFFDDE941
:104470000689CDE9020102460B464046494600F056
:10448000D1FF0B46C1F30A570E460999CF1B0246CE
:10449000312F8346CAE900236CDD3DA3D3E9002315
:1044A000DDE9040101F072F906460F4602460B46AB
:1044B00040464946CDE9068900F0B4FF02460B4666
:1044C00080468946DDE9060100F0ACFF32463B46F6
:1044D00000F0A8FF30A3D3E9002306460F46DDE92C
:1044E000040101F053F932463B4600F09BFF0246BF
:1044F0000B46CDE9022334E700F096FF2A4B9F429A
:1045000004460D4618D026A3D3E9002300F08CFF03
:1045100002460B46CAE900232946204600F082FFE6
:104520001FA3D3E9002300F07FFF4FF0FF35CAE956
:104530000201B7E6032394E611A3D3E9002300F0B8
:1045400073FF11A3D3E900230D46044600F06CFF6E
:1045500002460B46CAE900232946204600F062FFC6
:1045600009A3D3E9002300F05FFF4FF0FF35CAE94C
:10457000020197E6DDE90689FDE600BFAFF30080A2
:104580000000601A61B4D03D7370032E8A19A33BFA
:104590000000002E8A19A33BC14920259A837B394C
:1045A0003163621A61B4D03DFB21F93F0000000085
:1045B0002DE9F04F21F00046B6F1795F85B00C4649
:1045C00092469B4605466BDA01F07AFB002800F024
:1045D000E8802A4623462846214601F0D7F874A3EE
:1045E000D3E900238046894601F0D0F872A3D3E9CD
:1045F000002300F019FF42464B4601F0C7F870A3B4
:10460000D3E9002300F00EFF42464B4601F0BEF80E
:104610006DA3D3E9002300F007FF42464B4601F0AB
:10462000B5F86BA3D3E9002300F0FCFE42464B46ED
:1046300001F0ACF868A3D3E9002300F0F5FE424690
:104640004B4601F0A3F8CDE900010022644B40463F
:10465000494601F09BF8DDE9002306460F46404637
:10466000494601F093F85246804689465B46284603
:10467000214601F08BF802460B464046494600F0C1
:10468000D1FE02460B463046394600F0CBFE0246CC
:104690000B460020534900F0C5FE05B0BDE8F08F81
:1046A00002460B4601F072F841A3D3E9002380468D
:1046B000894601F06BF840A3D3E9002300F0B4FE73
:1046C00042464B4601F062F83DA3D3E9002300F0D7
:1046D000A9FE42464B4601F059F83BA3D3E900231B
:1046E00000F0A2FE42464B4601F050F838A3D3E951
:1046F000002300F097FE42464B4601F047F836A3F0
:10470000D3E9002300F090FE4B46424601F03EF80C
:10471000354B9E42CDE9000197DD344B9E424FF070
:10472000000238DCA6F5001300202E4916461F466D
:1047300000F078FECDE902010022294B40464946AF
:1047400001F024F832463B4600F06CFEDDE9002320
:1047500006460F464046494601F018F85246804644
:1047600089465B462846214601F010F802460B4672
:104770004046494600F056FE02460B463046394652
:1047800000F050FE02460B46DDE9020100F04AFE51
:1047900005B0BDE8F08F164B164FCDE90223002679
:1047A000CAE71049002005B0BDE8F08FAFF30080E4
:1047B000D43888BEE9FAA8BDC4B1B4BD9EEE213E8E
:1047C000AD529C804F7E923E9015CB19A001FA3ECF
:1047D0007751C1166CC1563F4C5555555555A53F9F
:1047E0000000E03F0000F03F3233D33F0000E93FDC
:1047F0000000E73F0000D23F2DE9F04FADF5197DF5
:104800009C4CA29E9C4D54F8264005942646D41EEE
:1048100085FB0475E417C4EBA50424EAE4741D4683
:104820000893631CA3EB8303013D02EBC3030493D2
:104830002B4609940295651BF418039006911AD42F
:104840002C4401340DF1780800260027DDF88C9205
:1048500008E059F8250000F033FF0135A542E8E9EA
:10486000020108D0002DF4DA013530463946A54260
:10487000E8E90201F6D1059B002B2EDB089B4FEAED
:10488000C309039BA9F10808984420AB9944059BF0
:1048900070AA02EBC30B0DF5DC7A029B002BC0F271
:1048A0000F83039B4D46A3F108040026002775E9FA
:1048B0000223F4E9020100F069FF02460B4630468C
:1048C000394600F0B1FD444506460F46EFD1EAE90E
:1048D0000267DA4509F10809DFD10598089A0090C6
:1048E00000F18043013B9B000CAC191F234402F1F3
:1048F00000520B93039B013A21440A9103EBC20B34
:10490000009A98A901EBC203002A53E928451346EF
:104910002BDD01EBC308A8F1A8080DF12C090DF55A
:10492000DC7A0022554B2046294600F02FFF01F08B
:10493000C7F900F0C5FE0022514B06460F4600F0B5
:1049400025FF02460B462046294600F06BFD01F08C
:10495000B7F978E8022349F8040F3946304600F0E9
:1049600063FDD04504460D46DBD1DDF810902046AE
:1049700029464A4600F0CCFC00224FF07F53044603
:104980000D4600F003FF00F037FC00223D4B00F025
:10499000FDFE02460B462046294600F043FD0D462B
:1049A000044601F08DF9804600F08AFE0B4602466F
:1049B0002946204600F036FD4B46002B06460F46A2
:1049C00040F3F780009A0CA9013AC9F1180351F895
:1049D000225045FA03F101FA03F30CA8EB1A40F850
:1049E0002230C9F11705884443FA05F5002D63DD2F
:1049F000009B002B08F1010840F381820C9C002CE5
:104A000000F01883012000230CAAC4F1807442F83E
:104A10002340009A824219DD0CAA0CAC52F82010F7
:104A20006FF07F42511A44F82010009902339942E6
:104A30000CDD1046009A0CA901EB830301EB820107
:104A40001A68821A43F8042B8B42F9D1049B002B7D
:104A50001ADD049B012B4FF0010440F05882009BAB
:104A60005A1E0CAB0CA953F82230C3F3160341F8BD
:104A7000223058E2D8640008ABAAAA2A0000703E8F
:104A80000000704100002040022D15D132463B4607
:104A90000020974900F0C6FC06460F46049A944948
:104AA000002000F035FC02460B463046394600F047
:104AB000B9FC022506460F4600220023304639463F
:104AC00001F0CCF8002800F05282009A059B501E9D
:104AD00083420FDC02F18043013B0CAA0B9C02EBEA
:104AE0008303002253F80419A34242EA0102F9D1D8
:104AF000002A6FD1059B0CAA013B52F82330002BF2
:104B000040F033820A9A012352F804190133002934
:104B1000FAD0009AD31802F1010A9A4507933DDCB6
:104B2000009B0899099A0B4407990AEB02089946D9
:104B300020AB08F1804803EBC9098B18A39A08F150
:104B4000FF3802EB880870AA02EBCA0AA39A02EBAC
:104B50008303009358F8040F00F0B2FD029B002B72
:104B6000E9E802011DDB039B4D46A3F10804002682
:104B7000002775E90223F4E9020100F007FE02466E
:104B80000B463046394600F04FFC5C4506460F4662
:104B9000EFD1009B9845EAE80267DBD1079B0093C1
:104BA000AEE6009B002600279845EAE80267D1D1CF
:104BB000F4E706D1009B0CAA013B52F82350ED15F7
:104BC00014E700224B4B01F067F8002840F0828187
:104BD000054671E70CA9029551F820300499CDF8EB
:104BE0001C8018390246009004916BB900F1804393
:104BF000013B0CA800EB830353F80409013A183970
:104C00000028F9D000920491049A3949002000F05C
:104C10007FFB009B002B04460D46C0F20382DA00A6
:104C200070A901EB020B04920CAA02EB8306DFF8D9
:104C3000C8900BF1080704364FF0000856F8040D31
:104C400000F03EFD22462B4600F0A0FD4B4667E9F2
:104C5000020142462046294600F098FD0CAB9E42D8
:104C600004460D46EAD10DF5907ACDF80CA0DDF89A
:104C700014A04FF00009BAF1000FC0F23D81DFF837
:104C80007C805D4618A1D1E90001002600270024A0
:104C900003E04C4510DCF8E80201F5E8022300F0DF
:104CA00075FD02460B463046394600F0BDFB013427
:104CB000A24506460F46ECDA039B03EBC903ABF1B2
:104CC000080BC3E900676EAB5B4509F10109D2D15E
:104CD000A29BDDF80CA0032B00F28B80DFE813F021
:104CE000D10090009000100000000040FB21F93F2F
:104CF0000000F03F0000E03F0000703EA0640008AC
:104D0000009B002B40F3A481049B0AEB0308D8E925
:104D10000067D34658E9029A32463B464846514618
:104D200000F082FB04460D4602460B4648465146BB
:104D300000F078FB32463B4600F076FBC8E9000104
:104D400068E90245C34526462F46E3D1009B012B67
:104D5000DA4640F37D81049B5B44D3E900679846C3
:104D600099460DF5947B59E902343246184621469E
:104D70003B46CDE9000100F057FB04460D460246D4
:104D80000B46DDE9000100F04DFB32463B4600F0EA
:104D90004BFBC9E9000169E90245CB4526462F4690
:104DA000E1D1002308F108081D464CAC18462946FD
:104DB00078E9022300F038FB444503460D46F5D15F
:104DC000029A002A00F02081DAF80440DAF80C2078
:104DD000069FDAF80010DAF808003B6105F100459B
:104DE00004F1004402F100427D617C60FA603960A8
:104DF000B860079B03F007000DF5197DBDE8F08F43
:104E0000049C00260834544433463046194674E95D
:104E1000022300F009FB544506460B46F5D1029AE1
:104E200030461946002A00F0DA80069803F1004463
:104E3000324644600660DAE9000100F0F3FA0B46FE
:104E40000099002902460EDD012410461946FAE9B0
:104E5000022300F0E9FA0B4600990134A142024610
:104E6000F3DA029909B103F100431946069B104693
:104E7000C3E90201079B03F007000DF5197DBDE8AA
:104E8000F08F049C002208345444134610461946FF
:104E900074E9022300F0C8FAA24502460B46F5D198
:104EA000029909B103F100431946069B1046C3E974
:104EB0000001079B03F007000DF5197DBDE8F08F99
:104EC00000260027EAE90267DA4509F108097FF4BC
:104ED000E4AC02E5009B002B08F10108C8BF0225E5
:104EE0003FF78CAD32463B460020634900F09AFA0A
:104EF000022506460F46DFE500260027DCE6049B78
:104F0000002B26DD0024049B012B3FF4A8AD022BCF
:104F100009D1009B5A1E0CAB0CA953F82230C3F3E5
:104F2000150341F82230022D7FF4C6AD32463B46D0
:104F30000020514900F076FA06460F46002C3FF457
:104F4000BBADABE500990133994278D1049B002BAE
:104F5000D9DC022D7FF4B0AD32463B4600204649F5
:104F600000F060FA06460F46A6E50123D1E5394672
:104F7000049F02957A423046CDF81C8000F0C8F9B3
:104F800000223E4B04460D4600F086FE002862D00B
:104F900000223B4B2046294600F0F8FB00F090FE33
:104FA000064600F08DFB0022344B00F0EFFB02467A
:104FB0000B462046294600F035FA00F081FE0099A4
:104FC0000B4601331A4600933B46183304930B46B5
:104FD0000CA941F82300134641F8236014E6069B10
:104FE0003246C3E900010B46DAE9000100F01AFA83
:104FF0000B460099002902463FF726AF1946069B4B
:105000001046C3E9020135E718462946DAE90023CC
:10501000DAE90245069FC7E90401C7E90023C7E9A9
:105020000245E6E6A29B032B3FF6E3AEDFE803F082
:10503000211C1C0E009B012B88DD0CAA012352F8B9
:10504000044F002C3FF47EAF581CDDE40DF5907A40
:1050500000231D46B4E62946204600F031FE009AA2
:105060000CA941F82200CFE5002633460DF5907AD1
:10507000D5E60022134613E70000F03F0000704120
:105080000000703E000000002DE9F04F21F00046C6
:10509000B6F1795F85B00C4690469946054604DA2C
:1050A00000F00EFE002800F085802A4623462846A0
:1050B000214600F06BFB06460F4602460B4628468B
:1050C000214600F063FB3EA3D3E9002382468B46D2
:1050D0003046394600F05AFB3BA3D3E9002300F0E9
:1050E000A1F932463B4600F051FB39A3D3E9002336
:1050F00000F09AF932463B4600F048FB36A3D3E96C
:10510000002300F08FF932463B4600F03FFB34A30A
:10511000D3E9002300F088F90E9BCDE900019BB391
:105120000022334B4046494600F030FBDDE90023C6
:10513000CDE902015046594600F028FB02460B46D5
:10514000DDE9020100F06EF932463B4600F01EFB3D
:1051500042464B4600F066F923A3D3E900230646F6
:105160000F465046594600F011FB02460B463046AA
:10517000394600F059F902460B462846214600F010
:1051800051F905B0BDE8F08F02460B46304639466E
:1051900000F0FCFA14A3D3E9002300F043F95246CF
:1051A0005B4600F0F3FA2A46234600F03DF905B0CD
:1051B000BDE8F08F2846214605B0BDE8F08F00BF5E
:1051C0007CD5CF5A3AD9E53DEB9C2B8AE6E55A3E91
:1051D0007DFEB157E31DC73ED561C119A0012A3F2D
:1051E000A6F810111111813F495555555555C53F28
:1051F0000000E03F00000000C1F30A522DE9F8432F
:10520000A2F2FF36132E0B460D460446884607468B
:105210001DDC002E40DB3C4A42FA06F901EA090295
:105220000243864618D036A3D3E9002300F0FCF8E9
:105230000022002300F03AFD20B1002D42DB28EAD5
:10524000090500273C4629462046BDE8F883332E51
:1052500006DDB6F5806F2FD019462046BDE8F883ED
:10526000A2F213424FF0FF3929FA02F910EA090FAE
:10527000F2D023A3D3E9002300F0D6F800220023C4
:1052800000F014FD0028DDD0002D21DB454627EA83
:1052900009073C462946D7E719A3D3E9002300F0C4
:1052A000C3F80022002300F001FD0028CAD0002D21
:1052B00019DB00273D46C5E702460B4600F0B4F86F
:1052C0000446CAE74FF4801343FA06F6B044B6E743
:1052D000142E10D00123C6F1340603FA06F637194E
:1052E00028BF9844D2E725F00042084B224318BF5C
:1052F0001D460027A6E705F10108C7E7AFF30080C8
:105300009C7500883CE4377EFFFF0F000000F0BF73
:10531000F8B5C1F30A5604460D460B4617460EBBB8
:1053200021F000430343864625D00022344B00F091
:105330002DFA344A974204460D460B462ADBC1F348
:105340000A56363E3E4440F2FE72964228DC002E5B
:1053500012DD23F0FF4323F4E00343EA0655204621
:105360002946F8BD40F2FF729642EBD102460B4649
:1053700000F05AF8F8BDF8BD16F1350F1DDA4CF201
:1053800050339F4222462B4625DC19A1D1E900016A
:1053900000F03CF816A3D3E9002300F0F7F9F8BDBC
:1053A00022462B4614A1D1E9000100F02FF812A3E8
:1053B000D3E9002300F0EAF9F8BD23F0FF4323F41A
:1053C000E003363643EA06552046294600220E4BB6
:1053D00000F0DCF9F8BD08A1D1E9000100F016F8F1
:1053E00005A3D3E9002300F0D1F9F8BDAFF30080A5
:1053F00059F3F8C21F6EA5019C7500883CE4377E06
:1054000000005043B03CFFFF0000903C03F000431D
:1054100021F0004242EA0301704700BF81F00041E1
:1054200002E000BF83F0004330B54FEA41044FEA89
:10543000430594EA050F08BF90EA020F1FBF54EA24
:10544000000C55EA020C7FEA645C7FEA655C00F0C0
:10545000E2804FEA5454D4EB5555B8BF6D420CDD91
:105460002C4480EA020281EA030382EA000083EA14
:10547000010180EA020281EA0303362D88BF30BDB4
:1054800011F0004F4FEA01314FF4801C4CEA11310A
:1054900002D0404261EB410113F0004F4FEA033369
:1054A0004CEA133302D0524263EB430394EA050FF4
:1054B00000F0A780A4F10104D5F1200E0DDB02FA63
:1054C0000EFC22FA05F2801841F1000103FA0EF2F7
:1054D000801843FA05F359410EE0A5F120050EF1BD
:1054E000200E012A03FA0EFC28BF4CF0020C43FAEE
:1054F00005F3C01851EBE37101F0004507D54FF0FB
:10550000000EDCF1000C7EEB00006EEB0101B1F54A
:10551000801F1BD3B1F5001F0CD349085FEA300090
:105520004FEA3C0C04F101044FEA445212F5800F9B
:1055300080F09A80BCF1004F08BF5FEA500C50F138
:10554000000041EB045141EA050130BD5FEA4C0C1B
:10555000404141EB010111F4801FA4F10104E9D1A4
:1055600091F0000F04BF01460020B1FA81F308BF9B
:105570002033A3F10B03B3F120020CDA0C3208DD67
:1055800002F1140CC2F10C0201FA0CF021FA02F142
:105590000CE002F11402D8BFC2F1200C01FA02F1B2
:1055A00020FA0CFCDCBF41EA0C019040E41AA2BFD7
:1055B00001EB0451294330BD6FEA04041F3C1CDA9F
:1055C0000C340EDC04F11404C4F1200220FA04F0BF
:1055D00001FA02F340EA030021FA04F345EA030169
:1055E00030BDC4F10C04C4F1200220FA02F001FA2B
:1055F00004F340EA0300294630BD21FA04F02946AD
:1056000030BD94F0000F83F4801306BF81F4801145
:105610000134013D4EE77FEA645C18BF7FEA655CB8
:1056200029D094EA050F08BF90EA020F05D054EA8A
:10563000000C04BF1946104630BD91EA030F1EBF8F
:105640000021002030BD5FEA545C05D14000494193
:1056500028BF41F0004130BD14F580043CBF01F586
:10566000801130BD01F0004545F0FE4141F470016C
:105670004FF0000030BD7FEA645C1ABF1946104647
:105680007FEA655C1CBF0B46024650EA013406BF48
:1056900052EA033591EA030F41F4002130BD00BF07
:1056A00090F0000F04BF0021704730B54FF48064C4
:1056B00004F132044FF000054FF0000150E700BF45
:1056C00090F0000F04BF0021704730B54FF48064A4
:1056D00004F1320410F0004548BF40424FF0000191
:1056E0003EE700BF42004FEAE2014FEA31014FEAD4
:1056F00002701FBF12F07F4393F07F4F81F0605123
:10570000704792F0000F14BF93F07F4F704730B591
:105710004FF4607401F0004521F0004120E700BF24
:1057200050EA010208BF704730B54FF000050AE0AB
:1057300050EA010208BF704730B511F0004502D5AC
:10574000404261EB41014FF4806404F132045FEAAE
:10575000915C3FF4DCAE4FF003025FEADC0C18BF53
:1057600003325FEADC0C18BF033202EBDC02C2F149
:10577000200300FA03FC20FA02F001FA03FE40EADB
:105780000E0021FA02F11444C1E600BF70B54FF0DB
:10579000FF0C4CF4E06C1CEA11541DBF1CEA1355BD
:1057A00094EA0C0F95EA0C0F00F0DEF82C4481EA25
:1057B000030621EA4C5123EA4C5350EA013518BF45
:1057C00052EA033541F4801143F4801338D0A0FB32
:1057D00002CE4FF00005E1FB02E506F00042E0FBDF
:1057E00003E54FF00006E1FB03569CF0000F18BFE5
:1057F0004EF0010EA4F1FF04B6F5007F64F540748D
:1058000004D25FEA4E0E6D4146EB060642EAC6211F
:1058100041EA55514FEAC52040EA5E504FEACE2E8C
:10582000B4F1FD0C88BFBCF5E06F1ED8BEF1004F8F
:1058300008BF5FEA500E50F1000041EB045170BD0B
:1058400006F0004646EA010140EA020081EA03014F
:10585000B4EB5C04C2BFD4EB0C0541EA045170BD4B
:1058600041F480114FF0000E013C00F3AB8014F1C5
:10587000360FDEBF002001F0004170BDC4F100040E
:10588000203C35DA0C341BDC04F11404C4F120058F
:1058900000FA05F320FA04F001FA05F240EA0200EA
:1058A00001F0004221F0004110EBD37021FA04F620
:1058B00042EB06015EEA430E08BF20EAD37070BDDA
:1058C000C4F10C04C4F1200500FA04F320FA05F039
:1058D00001FA04F240EA020001F0004110EBD3703B
:1058E00041F100015EEA430E08BF20EAD37070BDAB
:1058F000C4F1200500FA05F24EEA020E20FA04F384
:1059000001FA05F243EA020321FA04F001F0004132
:1059100021FA04F220EA020000EBD3705EEA430EA3
:1059200008BF20EAD37070BD94F0000F0FD101F0D2
:105930000046400041EB010111F4801F08BF013C0B
:10594000F7D041EA060195F0000F18BF704703F049
:105950000046520043EB030313F4801F08BF013DD0
:10596000F7D043EA0603704794EA0C0F0CEA13558C
:1059700018BF95EA0C0F0CD050EA410618BF52EA46
:105980004306D1D181EA030101F000414FF000004C
:1059900070BD50EA410606BF1046194652EA43065A
:1059A00019D094EA0C0F02D150EA013613D195EACE
:1059B0000C0F05D152EA03361CBF104619460AD116
:1059C00081EA030101F0004141F0FE4141F4700120
:1059D0004FF0000070BD41F0FE4141F4780170BD10
:1059E00070B54FF0FF0C4CF4E06C1CEA11541DBF75
:1059F0001CEA135594EA0C0F95EA0C0F00F0A7F877
:105A0000A4EB050481EA030E52EA03354FEA0131A3
:105A100000F088804FEA03334FF0805545EA1313B6
:105A200043EA12634FEA022245EA111545EA10657E
:105A30004FEA00260EF000419D4208BF964244F115
:105A4000FD0404F5407402D25B084FEA3202B61A34
:105A500065EB03055B084FEA32024FF480104FF408
:105A6000002CB6EB020E75EB030E22BFB61A75467C
:105A700040EA0C005B084FEA3202B6EB020E75EB0F
:105A8000030E22BFB61A754640EA5C005B084FEA77
:105A90003202B6EB020E75EB030E22BFB61A754644
:105AA00040EA9C005B084FEA3202B6EB020E75EB4F
:105AB000030E22BFB61A754640EADC0055EA060E10
:105AC00018D04FEA051545EA16754FEA06164FEA53
:105AD000C30343EA52734FEAC2025FEA1C1CC0D1FF
