:020000040800F2
:10000000700B00203D0700089D0700089D070008B1
:100010009D0700089D0700089D07000800000000DC
:100020000000000000000000000000009D07000824
:100030009D070008000000009D07000849260008F1
:100040009D0700089D0700089D0700089D07000800
:100050009D0700089D0700085D1B00087B1B00082A
:10006000991B0008B71B0008D51B00089D07000856
:100070009D0700089D0700089D0700089D070008D0
:100080009D0700089D0700089D0700089D070008C0
:100090009D0700089D0700089D070008F31B000846
:1000A0009D0700089D0700089D0700089D070008A0
:1000B000F13200089D0700089D0700089D07000811
:1000C0009D0700089D0700089D0700089D07000880
:1000D0009D0700089D07000851020008AD30000888
:1000E0009D0700089D0700089D0700089D07000860
:1000F0009D0700089D0700089D0700089D07000850
:100100009D0700089D070008794900089D07000821
:100110009D0700089D0700089D0700089D0700082F
:100120009D0700089D0700089D0700089D0700081F
:100130009D0700089D0700089D0700089D0700080F
:100140009D0700089D0700089D0700089D070008FF
:100150009D0700089D0700089D0700089D070008EF
:100160009D0700089D0700089D0700089D070008DF
:100170009D0700089D0700089D0700089D070008CF
:100180009D0700089D07000880B588B000AF0121D9
:10019000012000F081FD01214FF4003000F09AFDB4
:1001A0000C237B6102237B7602233B760023BB7604
:1001B0000023FB7607F114031946234802F090FA56
:1001C00007220321204802F04DFB072202211E488E
:1001D00002F048FB01214FF4003000F07BFD1B488A
:1001E00000F0B8F84FF416537B6000233B810023E6
:1001F0007B810023BB8100233B820C23FB813B1DC1
:100200001946124800F010F90121104800F0C6F913
:10021000012240F225510D4800F0EEF926233B77EC
:1002200000237B770023BB770123FB7707F11C03B7
:10023000184604F00BF80121044800F0AFF900BFA4
:100240002037BD4680BD00BF000002400044004092
:1002500080B500AF40F22551154800F014FA03466E
:10026000002B06D0124800F0B8F90346DAB2114B61
:100270001A70114B1B784D2B07D10E4B1A780F4B70
:100280001A700D4B00221A700FE00B4B1B78422B9B
:1002900007D1084B1A780A4B1A70074B00221A70C4
:1002A00003E0044B1A78044B1A7000BF80BD00BFF6
:1002B00000440040E2010020E1010020B6010020DE
:1002C000C401002080B500AFFFF75EFF00BF80BD16
:1002D00090B484B000AF03460A46FB711346BB716D
:1002E0000023FB60BB7903F003039B000F2202FA9B
:1002F00003F3FB601649BB799B08DBB21846144A2E
:10030000BB799B08DBB2023352F82320FB68DB4346
:100310001A40831C41F823200D48BB799B08DBB2AF
:100320001C460B4ABB799B08DBB2023352F82320F0
:10033000F979BB7903F003039B0001FA03F31A4335
:10034000A31C40F8232000BF1037BD4690BC704767
:100350000038014080B582B000AF78607B682C4ADD
:10036000934208D10121102000F00EFD0021102041
:1003700000F00AFD47E07B68264A93420AD101213A
:100380004FF4003000F0E2FC00214FF4003000F0A8
:10039000DDFC38E07B68204A93420AD101214FF40A
:1003A000802000F0D3FC00214FF4802000F0CEFC30
:1003B00029E07B68194A93420AD101214FF40020B9
:1003C00000F0C4FC00214FF4002000F0BFFC1AE054
:1003D0007B68134A93420AD101214FF4801000F048
:1003E000B5FC00214FF4801000F0B0FC0BE07B68FE
:1003F0000C4A934207D10121202000F0C5FC0021C6
:10040000202000F0C1FC00BF0837BD4680BD00BF02
:10041000001001400044004000480040004C0040F3
:10042000005000400014014080B58AB000AF7860F1
:10043000396000237B6200233B620023FB610023C1
:10044000BB617B681B8A9BB27B627B6A23F440534F
:100450007B623B68DB881A467B6A13437B627B6A5C
:100460009AB27B681A827B689B899BB27B627B6AAB
:1004700023F4B05323F00C037B623B689A883B68FB
:100480001B8913439AB23B685B8913439BB21A469C
:100490007B6A13437B627B6A9AB27B689A817B6832
:1004A0009B8A9BB27B627B6A23F440737B623B68CE
:1004B0009B891A467B6A13437B627B6A9AB27B688C
:1004C0009A8207F10803184600F03EFB7B68304A29
:1004D000934203D07B682F4A934202D17B693B62EF
:1004E00001E03B693B627B689B899BB21BB2002B9E
:1004F0000CDA3A6A13469B0013449A001A443B688C
:100500001B685B00B2FBF3F3FB610BE03A6A134636
:100510009B0013449A001A443B681B689B00B2FB83
:10052000F3F3FB61FB691C4AA2FB03235B091B017C
:100530007B627B6A1B09642202FB03F3FA69D31A0C
:10054000BB617B689B899BB21BB2002B0CDABB6939
:10055000DB003233104AA2FB03235B0903F00703DD
:100560007A6A13437B620BE0BB691B0132330A4A90
:10057000A2FB03235B0903F00F037A6A13437B6238
:100580007B6A9AB27B681A8100BF2837BD4680BD5E
:1005900000100140001401401F85EB5180B483B06E
:1005A00000AF78600B46FB70FB78002B08D07B68AF
:1005B0009B899BB243F400539AB27B689A8107E00F
:1005C0007B689B899BB223F400539AB27B689A8123
:1005D00000BF0C37BD4680BC704780B483B000AF0D
:1005E00078607B689B889BB2C3F308039BB2184674
:1005F0000C37BD4680BC704780B487B000AF7860D0
:100600000B467B8013467B7000233B610023FB601D
:100610000023BB6000237B617B687B617B88DBB24E
:100620005B09DBB23B617B8803F01F03FB600122A7
:10063000FB6802FA03F3BB603B69012B03D17B69C2
:100640000C337B6109E03B69022B03D17B691033DA
:100650007B6102E07B6914337B617B78002B06D0E1
:100660007B697A691168BA680A431A6006E07B6997
:100670007A691168BA68D2430A401A6000BF1C3711
:10068000BD4680BC704780B487B000AF78600B4631
:100690007B800023FB6000237B610023BB60002381
:1006A000FB747B88DBB25B09DBB2BB607B8803F049
:1006B0001F037B6101227B6902FA03F37B61BB6844
:1006C000012B07D17B689B899BB21A467B6913403B
:1006D0007B6111E0BB68022B07D17B681B8A9BB250
:1006E0001A467B6913407B6106E07B689B8A9BB25C
:1006F0001A467B6913407B617B881B0A9BB2FB60B7
:100700000122FB6802FA03F3FB607B681B889BB243
:100710001A46FB681340FB607B69002B05D0FB6821
:10072000002B02D00123FB7401E00023FB74FB7C4F
:1007300018461C37BD4680BC7047000080B582B0AB
:1007400000AF114B7B60114B3B6007E03B681A1D0B
:100750003A607A68111D796012681A603B680C4A29
:100760009342F3D30B480C494FF000028842B8BFC4
:1007700040F8042BFADB02F095FB00F073F900BFA0
:100780000837BD4680BD00BF9875000800000020F6
:10079000C8000020C80000206C03002080B400AF17
:1007A000FEE7000080B584B000AF0121042000F016
:1007B00091FA0023BB800023FB804FF6FF73BB60E0
:1007C0000023BB810023BB733B1D1946054804F081
:1007D000EFF80121034804F055F900BF1037BD467A
:1007E00080BD00BF0008004080B586B000AFFFF7B5
:1007F000D9FF7023BB800123FB8002233B8240F69C
:100800003303FB603B1D1946184804F05BF90821CF
:10081000164804F045FB41F26703FB603B1D194697
:10082000124804F0C9F90821104804F054FB41F6BD
:100830009B03FB603B1D19460C4804F045FA082158
:100840000A4804F065FB42F2CF03FB603B1D1946EA
:10085000064804F0BFFA0821044804F074FB00F0D5
:1008600007F800BF1837BD4680BD00BF0008004034
:1008700080B582B000AF0121082000F00DFA0222FD
:100880000C21274801F0EEFF02220D21244801F03F
:10089000E9FF02220E21224801F0E4FF02220F218B
:1008A0001F4801F0DFFF4FF47F433B600023BB7123
:1008B0000023FB7102233B7103237B713B461946E6
:1008C000174801F00DFF0121022000F0E5F94FF477
:1008D00070433B600023BB710023FB7101233B711C
:1008E00003237B713B4619460E4801F0F9FE0121B6
:1008F000102000F0D1F94FF470433B600023BB712E
:100900000023FB7101233B7103237B713B46194696
:10091000054801F0E5FE00BF0837BD4680BD00BFB9
:10092000000C0240000402400010024080B584B078
:1009300000AF03463960FB713B68002BCCBF01233D
:100940000023FB733B68002BB8BF5B423B60FB7925
:10095000013B032B7AD801A252F823F06D0900085D
:10096000A5090008DD090008150A0008FB7B002B1B
:100970000AD04FF48051384801F058FF4FF400512D
:10098000354801F061FF09E04FF40051324801F0B1
:100990004DFF4FF48051304801F056FF2F4A3B681D
:1009A000536354E0FB7B002B0AD04FF480412A486C
:1009B00001F03CFF4FF40041274801F045FF09E0FA
:1009C0004FF40041244801F031FF4FF480412248A8
:1009D00001F03AFF214A3B68936338E0FB7B002B30
:1009E0000AD04FF480511E4801F020FF4FF480419F
:1009F0001B4801F029FF09E04FF48041184801F03D
:100A000015FF4FF48051164801F01EFF134A3B6852
:100A1000D3631CE0FB7B002B0AD04FF4005110483D
:100A200001F004FF4FF400410D4801F00DFF09E013
:100A30004FF400410A4801F0F9FE4FF40051084814
:100A400001F002FF054A3B68136400E000BF00BFED
:100A50001037BD4680BD00BF0004024000080040C2
:100A60000010024080B582B000AF02F01BFA01F026
:100A7000E5FF01F00DFE03F093FF01F0FDFF03F031
:100A80009FFD03F0B9FD03F07BFAFFF71BFC02F0BA
:100A9000B1FA01F05FFF01F02DFF01F091FF40F688
:100AA000B83001F0B9FD02F0CBFB00237B604FF4BE
:100AB0000051064801F0A1FE03461A46044B1A6095
:100AC0000021002003F024FCF1E700BF00080240F1
:100AD000E801002080B483B000AF0346FB71054BF2
:100AE00000221A70034AFB79137000BF0C37BD4611
:100AF00080BC70470238024080B582B000AF00234E
:100B00003B600023FB710023BB71312000F05AF9D8
:100B10000346BB713B6801333B603B68B3F5A06F94
:100B200002D0BB79002BF0D0312000F04BF9034606
:100B3000002B02D00123FB7101E00023FB71FB7944
:100B400018460837BD4680BD80B489B000AF7860D4
:100B50000023BB6100237B610023FB6102233B6117
:100B60000023FB600223BB60474B9B6803F00C0330
:100B7000BB61BB69042B07D0082B09D0002B3DD1EA
:100B80007B68424A1A603DE07B68414A1A6039E05E
:100B90003D4B5B689B0D03F00103FB603A4B5B68C8
:100BA00003F03F03BB60FB68002B0CD0384ABB68E6
:100BB000B2FBF3F3344A52689209C2F3080202FB13
:100BC00003F3FB610BE0314ABB68B2FBF3F32E4A3F
:100BD00052689209C2F3080202FB03F3FB612A4B3D
:100BE0005B681B0C03F0030301335B003B61FA6994
:100BF0003B69B2FBF3F27B681A6003E07B68234A2F
:100C00001A6000BF204B9B6803F0F003BB61BB6917
:100C10001B09BB611F4ABB6913441B78DBB27B61B4
:100C20007B681A687B69DA407B685A60164B9B6860
:100C300003F4E053BB61BB699B0ABB61154ABB6906
:100C400013441B78DBB27B617B685A687B69DA40AE
:100C50007B689A600C4B9B6803F46043BB61BB6983
:100C60005B0BBB610B4ABB6913441B78DBB27B6136
:100C70007B685A687B69DA407B68DA6000BF24379A
:100C8000BD4680BC704700BF003802400024F4001D
:100C900000127A000000002080B483B000AF7860BA
:100CA0000B46FB70FB78002B06D00949084B1A6BEA
:100CB0007B6813430B6306E00549054B1A6B7B68A1
:100CC000DB4313400B6300BF0C37BD4680BC70474D
:100CD0000038024080B483B000AF78600B46FB70F0
:100CE000FB78002B06D00949084B1A6C7B6813432C
:100CF0000B6406E00549054B1A6C7B68DB43134027
:100D00000B6400BF0C37BD4680BC70470038024002
:100D100080B483B000AF78600B46FB70FB78002B8B
:100D200006D00949084B5A6C7B6813434B6406E0B4
:100D30000549054B5A6C7B68DB4313404B6400BF8D
:100D40000C37BD4680BC70470038024080B483B089
:100D500000AF78600B46FB70FB78002B06D009498A
:100D6000084B1A6A7B6813430B6206E00549054B82
:100D70001A6A7B68DB4313400B6200BF0C37BD4629
:100D800080BC70470038024080B483B000AF786008
:100D90000B46FB70FB78002B06D00949084B5A6ABA
:100DA0007B6813434B6206E00549054B5A6A7B6832
:100DB000DB4313404B6200BF0C37BD4680BC70471D
:100DC0000038024080B487B000AF0346FB710023B7
:100DD000FB6000237B610023FB74FB795B09DBB2C2
:100DE000FB60FB68012B03D1124B1B687B6109E0A0
:100DF000FB68022B03D10F4B1B6F7B6102E00D4B95
:100E00005B6F7B61FB7903F01F03FB607A69FB6812
:100E100022FA03F303F00103002B02D00123FB7439
:100E200001E00023FB74FB7C18461C37BD4680BCE8
:100E3000704700BF0038024080B483B000AF7860D4
:100E40000B46FB707B68FA781A70012318460C3742
:100E5000BD4680BC704780B485B000AF7860396013
:100E60000023FB600AE07B685A1C7A603A68511CD8
:100E7000396012781A70FB680133FB603B681B789D
:100E8000002BF0D1FB6818461437BD4680BC704774
:100E900080B586B000AFF8607A603B600B46FB72AD
:100EA00000237B617B68013B7B603B68092B1DD97C
:100EB0003B681D4AA2FB0323DB08F97A7A68F868CD
:100EC000FFF7E6FF78617B69FA681344FB6010E086
:100ED000FB7A1946F868FFF7AFFFFB680133FB6048
:100EE0007B6901337B617B68013B7B607B68002B06
:100EF000EEDC39680C4BA3FB0123DA0813469B0098
:100F000013445B00CA1AD3B23033DBB21946F86817
:100F1000FFF792FF02467B6913447B617B691846A9
:100F20001837BD4680BD00BFCDCCCCCC80B586B0D7
:100F300000AFF8607A603B600B46FB7200237B6178
:100F40003B68002B03DA3B685B423B6101E03B6896
:100F50003B617B68013B7B603B69092B1FD93B6888
:100F6000002B0CDA3B692E4AA2FB0323DB085B4211
:100F7000F97A7A68F868FFF7D9FF78610AE03B6987
:100F8000274AA2FB0323DB08F97A7A68F868FFF79F
:100F9000CDFF78617B69FA681344FB6025E03B680C
:100FA000002B11DA7B68013B7B600DE0FB7A194670
:100FB000F868FFF741FFFB680133FB607B69013391
:100FC0007B617B68013B7B607B68002BEEDC3B68D0
:100FD000002B0ADA2D21F868FFF72EFF02467B6905
:100FE00013447B61FB680133FB6039690C4BA3FB45
:100FF0000123DA0813469B0013445B00CA1AD3B2DC
:101000003033DBB21946F868FFF716FF02467B69FA
:1010100013447B617B6918461837BD4680BD00BF0D
:10102000CDCCCCCC80B588B002AFF8607A601A46DF
:101030000B46FB721346BB7200237B617B68013B4E
:101040007B603B6A1B09002B20D03B6A1B09BA7AE4
:10105000F97A009313467A68F868FFF7E3FF0246CF
:101060007B6913447B617B69FA681344FB6010E081
:10107000FB7A1946F868FFF7DFFEFB680133FB6077
:101080007B6901337B617B68013B7B607B68002B64
:10109000EEDC3B6A03F00F03092B0BD83B6ADBB293
:1010A00003F00F03DBB23033DBB21946F868FFF709
:1010B000C3FE19E0BB7A002B0BD03B6ADBB203F016
:1010C0000F03DBB23733DBB21946F868FFF7B4FE23
:1010D0000AE03B6ADBB203F00F03DBB25733DBB24B
:1010E0001946F868FFF7A8FE7B6901337B617B69CD
:1010F00018461837BD4680BD80B58AB002AFF8608B
:10110000B9607A603B600023BB6100237B61FB68B0
:10111000002B00F0FC80FB6800221A70F7E07B686F
:101120001B78252B0BD0FB685A1CFA607A68511C7F
:10113000796012781A707B6901337B61E7E07B6824
:1011400001331B78252B0BD1FB685A1CFA60252232
:101150001A707B6802337B607B6901337B61D6E068
:101160002023FB770023BB777B6801337B607B68A0
:101170001B78302B14D13023FB777B6801337B60E5
:101180000EE0BB7F1A46920013445B00DAB27B6824
:101190001B781344DBB2303BBB777B6801337B6049
:1011A0007B681B782F2B03D97B681B78392BE8D9F8
:1011B000BA7F7B6913441A46BB689A4205D9BB685B
:1011C000DAB27B69DBB2D31ABB777B681B78583BFA
:1011D000202B00F28E8001A252F823F0AD120008FD
:1011E000F3120008F3120008F3120008F3120008CB
:1011F000F3120008F3120008F3120008F3120008BB
:10120000F3120008F3120008DD1200086112000852
:10121000F3120008F3120008F3120008F31200089A
:1012200061120008F3120008F3120008F31200081C
:10123000F3120008F3120008F3120008F31200087A
:10124000F3120008F3120008C9120008F312000894
:1012500079120008F3120008F31200089112000836
:10126000B87F3B681A1D3A601B68F97F0246F86830
:10127000FFF75CFEB8613FE0B87F3B681A1D3A603B
:101280001B68F97F0246F868FFF702FEB86133E099
:10129000B87F3B681A1D3A601B68F97F00930023F2
:1012A0000246F868FFF7BEFEB86125E0B87F3B68EC
:1012B0001A1D3A601B68F97F009301230246F86803
:1012C000FFF7B0FEB86117E03B681A1D3A601B6873
:1012D0001946F868FFF7BFFDB8610DE03B681A1DBD
:1012E0003A601B68DBB21946F868FFF7A5FDB861E4
:1012F00002E04FF0FF3325E07B6801337B60BB6980
:10130000FA681344FB607A69BB6913447B617B68AC
:101310001B78002B04D07A69BB689A42FFF4FFAEB9
:101320007A69BB689A4203D2FB6800221A7008E00F
:10133000FB68013BFB60FB6800221A707B69013B84
:101340007B617B6918462037BD4680BD80B584B07F
:1013500000AFF860B9607A607B68BA686421F868A9
:10136000FFF7CAFE034618461037BD4680BD0EB4CF
:1013700080B585B000AF786007F12003BB60BA6824
:10138000F9697868FFF7E2FFF860FB6818461437E0
:10139000BD46BDE8804003B07047000080B588B00E
:1013A00000AF786001210820FFF776FC01214FF49F
:1013B0008040FFF7ADFC00233B770023BB77012380
:1013C000FB7703237B770123BB6107F118031946E1
:1013D0001A4801F085F91023BB6107F1180319467B
:1013E000164801F07DF900210320FEF771FF01236B
:1013F0003B610123BB7500233B7510237B7507F10F
:101400001003184602F07EFE06233B7303237B7312
:101410000023BB730123FB7307F10C03184602F092
:1014200015FF074B00221A607B6800225A607B6818
:1014300000221A6000BF2037BD4680BD000C02406C
:101440000402002080B588B000AF78600121082038
:10145000FFF722FC01214FF48040FFF759FC0023E5
:101460003B770023BB770123FB7703237B770223A2
:10147000BB6107F1180319461A4801F031F920231E
:10148000BB6107F118031946164801F029F901213B
:101490000320FEF71DFF02233B610123BB750023E0
:1014A0003B7510237B7507F11003184602F02AFEE6
:1014B00007233B7303237B730023BB730123FB735D
:1014C00007F10C03184602F0C1FE074B00221A6018
:1014D0007B6800225A607B6800221A6000BF2037B8
:1014E000BD4680BD000C02400002002080B588B0DF
:1014F00000AF786001210820FFF7CEFB01214FF4F7
:101500008040FFF705FC00233B770023BB770123D6
:10151000FB7703237B770423BB6107F1180319468C
:101520001A4801F0DDF84023BB6107F118031946A2
:10153000164801F0D5F802210320FEF7C9FE042366
:101540003B610123BB7500233B7510237B7507F1BD
:101550001003184602F0D6FD08233B7303237B7368
:101560000023BB730123FB7307F10C03184602F041
:101570006DFE074B00221A607B6800225A607B6870
:1015800000221A6000BF2037BD4680BD000C02401B
:101590000802002080B588B000AF786001210820E3
:1015A000FFF77AFB01214FF48040FFF7B1FB0023E6
:1015B0003B770023BB770123FB7703237B7708234B
:1015C000BB6107F1180319461A4801F089F8802316
:1015D000BB6107F118031946164801F081F8032191
:1015E0000320FEF775FE08233B610123BB75002332
:1015F0003B7510237B7507F11003184602F082FD3E
:1016000009233B7303237B730023BB730123FB7309
:1016100007F10C03184602F019FE074B00221A606E
:101620007B6800225A607B6800221A6000BF203766
:10163000BD4680BD000C0240FC01002080B588B092
:1016400000AF786001210220FFF726FB01214FF453
:101650008040FFF75DFB00233B770023BB7701232E
:10166000FB7703237B771023BB6107F1180319462F
:101670001A4801F035F80423BB6107F11803194635
:10168000164801F02DF804210120FEF721FE102359
:101690003B610123BB7500233B7510237B7507F16C
:1016A0001003184602F02EFD0A233B7303237B73BD
:1016B0000023BB730123FB7307F10C03184602F0F0
:1016C000C5FD074B00221A607B6800225A607B68C8
:1016D00000221A6000BF2037BD4680BD00040240D2
:1016E000F401002080B588B000AF786001210220AD
:1016F000FFF7D2FA01214FF48040FFF709FB0023E6
:101700003B770023BB770123FB7703237B772023E1
:10171000BB6107F1180319461A4800F0E1FF0823DE
:10172000BB6107F118031946164800F0D9FF0521DF
:101730000120FEF7CDFD20233B610123BB75002373
:101740003B7510237B7507F11003184602F0DAFC95
:1017500017233B7303237B730023BB730123FB73AA
:1017600007F10C03184602F071FD074B00221A60C6
:101770007B6800225A607B6800221A6000BF203715
:10178000BD4680BD00040240F801002080B483B053
:1017900000AF7860124B1A687B681B68D21A7B68AE
:1017A0005A600F4B1A687B681A600D4B1B68002B40
:1017B00004DA7B6801221A7201230CE0084B1B68D3
:1017C000002B04DD7B6800221A72002303E07B6893
:1017D00002221A72022318460C37BD4680BC70479D
:1017E0000402002080B483B000AF7860124B1A6806
:1017F0007B681B68D21A7B685A600F4B1A687B683B
:101800001A600D4B1B68002B04DA7B6801221A72E8
:1018100001230CE0084B1B68002B04DD7B680022D1
:101820001A72002303E07B6802221A720223184610
:101830000C37BD4680BC70470002002080B483B0E6
:1018400000AF7860124B1A687B681B68D21A7B68FD
:101850005A600F4B1A687B681A600D4B1B68002B8F
:1018600004DA7B6801221A7201230CE0084B1B6822
:10187000002B04DD7B6800221A72002303E07B68E2
:1018800002221A72022318460C37BD4680BC7047EC
:101890000802002080B483B000AF7860124B1A6851
:1018A0007B681B68D21A7B685A600F4B1A687B688A
:1018B0001A600D4B1B68002B04DA7B6801221A7238
:1018C00001230CE0084B1B68002B04DD7B68002221
:1018D0001A72002303E07B6802221A720223184660
:1018E0000C37BD4680BC7047FC01002080B582B03B
:1018F00000AF0121144800F080FF0346FB71102166
:10190000114800F07AFF0346BB71104B1B78FA793F
:101910009A4214D00D4AFB7913700C4B1B78002BA4
:101920000DD1BB79012B05D1094B1B680133084A46
:10193000136004E0064B1B68013B054A136000BFBF
:101940000837BD4680BD00BF000C024010000020DB
:101950000402002080B582B000AF0221144800F0DC
:101960004CFF0346FB712021114800F046FF03465F
:10197000BB71104B1B78FA799A4214D00D4AFB794F
:1019800013700C4B1B78002B0DD1BB79012B05D1AB
:10199000094B1B680133084A136004E0064B1B68BF
:1019A000013B054A136000BF0837BD4680BD00BF3C
:1019B000000C0240110000200002002080B582B01F
:1019C00000AF0421144800F018FF0346FB714021CA
:1019D000114800F012FF0346BB71104B1B78FA79D7
:1019E0009A4214D00D4AFB7913700C4B1B78002BD4
:1019F0000DD1BB79012B05D1094B1B680133084A76
:101A0000136004E0064B1B68013B054A136000BFEE
:101A10000837BD4680BD00BF000C02401200002008
:101A20000802002080B582B000AF0821144800F001
:101A3000E4FE0346FB718021114800F0DEFE034600
:101A4000BB71104B1B78FA799A4214D00D4AFB797E
:101A500013700C4B1B78002B0DD1BB79012B05D1DA
:101A6000094B1B680133084A136004E0064B1B68EE
:101A7000013B054A136000BF0837BD4680BD00BF6B
:101A8000000C024013000020FC01002080B582B051
:101A900000AF1021144800F0B0FE0346FB71042192
:101AA000114800F0AAFE0346BB71104B1B78FA796F
:101AB0009A4214D00D4AFB7913700C4B1B78002B03
:101AC0000DD1BB79012B05D1094B1B680133084AA5
:101AD000136004E0064B1B68013B054A136000BF1E
:101AE0000837BD4680BD00BF00040240140000203E
:101AF000F401002080B582B000AF2021144800F02E
:101B00007CFE0346FB710821114800F076FE034677
:101B1000BB71104B1B78FA799A4214D00D4AFB79AD
:101B200013700C4B1B78002B0DD1BB79012B05D109
:101B3000094B1B680133084A136004E0064B1B681D
:101B4000013B054A136000BF0837BD4680BD00BF9A
:101B50000004024015000020F801002080B500AF0D
:101B6000012002F041FB0346002B04D0FFF7BEFE2C
:101B7000012002F05DFB00BF80BD80B500AF0220F8
:101B800002F032FB0346002B04D0FFF7E3FE0220F5
:101B900002F04EFB00BF80BD80B500AF042002F014
:101BA00023FB0346002B04D0FFF708FF042002F0BC
:101BB0003FFB00BF80BD80B500AF082002F014FBE2
:101BC0000346002B04D0FFF72DFF082002F030FB66
:101BD00000BF80BD80B500AF102002F005FB0346BA
:101BE000002B04D0FFF752FF102002F021FB00BFB2
:101BF00080BD80B500AF202002F0F6FA0346002B2E
:101C000004D0FFF777FF202002F012FB00BF80BD59
:101C10002DE9F04F85B000AF774B1A68774B1B6802
:101C200013445B42DA0F13445B101A46744B1A607C
:101C3000744B1A68744B1B681344DA0F13445B101F
:101C40001A46724B1A606D4B1A686E4B1B68134430
:101C50005B42DA0F13445B101A466D4B1A60664BF9
:101C60001A68694B1B681344DA0F13445B101A4659
:101C7000684B1A60624B1A68674B1B68D31A674A35
:101C80001360624B1A68664B1B68D31A654A13606F
:101C90005F4B1A68644B1B68D31A644A13605D4B30
:101CA0001A68634B1B68D31A624A1360544B1B6853
:101CB000594A1360554B1B68594A1360544B1B68B3
:101CC000594A1360534B1B68594A1360534B1B68A6
:101CD000184605F023F90246574B1A60514B1B6812
:101CE000184605F01BF90246544B1A604F4B1B680F
:101CF000184605F013F90246514B1A604D4B1B680C
:101D0000184605F00BF902464E4B1A604A4B1A680A
:101D10004A4B1B681946104605F04CF803464FF035
:101D20008041184605F002FA03461A46464B1A60EF
:101D3000434B1A68434B1B681946104605F03AF8A6
:101D400003464FF08041184605F0F0F903461A4665
:101D50003E4B1A603E4B1B68184604F0BFFC04461D
:101D60000D46354B1A68354B1B681946104605F071
:101D70001FF80346184604F0B1FC1BA3D3E9002367
:101D800004F02AFE02460B462046294604F048FB92
:101D900003460C461846214604F0B6FF02462C4B7B
:101DA0001A602B4B1B68184604F098FC10A3D3E96B
:101DB000002304F077FF0346002B4BD0244B1B6815
:101DC000184604F08BFC0AA3D3E9002304F026FB99
:101DD00003460C461846214604F096FF02461C4B6B
:101DE0001A6054E0AFF300806666666666E6684097
:101DF0006E861BF0F9211940040200200002002029
:101E00006402002008020020FC0100207002002073
:101E10001C02002044020020D400002018020020F0
:101E2000D800002028020020DC0000202002002032
:101E3000E0000020780200203C0200203802002050
:101E40006C020020340200206002002040020020CA
:101E500080010020C84B1B684FF00001184605F0B8
:101E60004FFA0346002B12D0C34B1B68184604F0F0
:101E700035FCB9A3D3E9002304F0D2FA03460C469B
:101E80001846214604F040FF0246BB4B1A60BA4B8D
:101E90001B68BA49184605F095F80346184604F041
:101EA0001DFCAFA3D3E9002304F096FD03460C46C6
:101EB0001846214604F028FF0246B14B1A60B14B88
:101EC0001B68184604F00AFCC7E90201AE4B1B6808
:101ED000184604F003FC04460D46A74B1B68184641
:101EE00004F0FCFB02460B461046194603F0F2F8DC
:101EF00002460B462046294604F044FC03460C46A5
:101F0000C7E90034A14B1B68184604F0E7FB0546FF
:101F10000E46994B1B68184604F0E0FB03460C463E
:101F20001846214603F088F803460C461A46234615
:101F30002846314604F026FC03460C461A46234642
:101F4000D7E9000104F06CFA03460C461846214616
:101F500085A3D3E9002304F03FFD03460C461A464F
:101F60002346D7E9020104F05BFA03460C46184603
:101F7000214604F0C9FE0246824B1A60844B1B685E
:101F8000184604F0ABFBC7E902017F4B1B681846FB
:101F900004F0A4FB04460D46774B1B68184604F07A
:101FA0009DFB02460B461046194603F045F80246D3
:101FB0000B462046294604F0E5FB03460C461D4629
:101FC0002646724B1B68184604F088FBC7E90001DF
:101FD000694B1B68184604F081FB03460C46184603
:101FE000214603F077F803460C46984684F00049F2
:101FF00042464B46D7E9000104F0C4FB03460C46B9
:102000001A4623462846314604F00AFA03460C468F
:102010001846214654A3D3E9002304F0DDFC03460F
:102020000C461A462346D7E9020104F0F9F90346A3
:102030000C461846214604F067FE0246544B1A60CF
:10204000544B1B68184604F049FB804689464E4BAA
:102050001B68184604F042FB04460D464E4B1B68B5
:10206000184604F03BFB3EA3D3E9002304F08AFBAF
:1020700002460B46104619464FF00002474B04F04B
:10208000ABFC02460B461046194603F023F8024605
:102090000B462046294604F075FB03460C461D46B8
:1020A00026463A4B1B68184604F018FBC7E90201A4
:1020B000394B1B68184604F011FB29A3D3E9002310
:1020C00004F060FB03460C46184621464FF0000220
:1020D000324B04F081FC03460C461846214602F0C0
:1020E000ABFF03460C461A462346D7E9020104F02B
:1020F00049FB03460C461A4623462846314604F05F
:102100008FF903460C461846214619A3D3E900234C
:1021100004F062FC03460C461A46234640464946F4
:1021200004F07EF903460C461846214604F0ECFD07
:102130000246184B1A601A4B1B68184604F0CEFA78
:1021400080468946104B1B68184604F0C7FA0446BF
:1021500028E000BFAFF300806E861BF0F921194024
:10216000F1D4C853FB210940762EBFE54782D43F06
:102170003F1F2BD05CDBD43F8001002000003443A4
:102180005C02002048020020600200204002002083
:102190002C02002068020020C00100200080664060
:1021A0004C0200200D463E4B1B68184604F096FA80
:1021B00037A3D3E9002304F0E5FA02460B461046A4
:1021C00019464FF00002374B04F006FC02460B465E
:1021D0001046194602F030FF02460B4620462946BB
:1021E00004F0D0FA03460C461D4626462E4B1B68CB
:1021F000184604F073FAC7E90201294B1B68184618
:1022000004F06CFA22A3D3E9002304F0BBFA0346DE
:102210000C46184621464FF00002224B04F0DCFB2E
:1022200003460C461846214602F054FF03460C466E
:102230009A4684F0004B52465B46D7E9020104F00F
:10224000A1FA03460C461A4623462846314604F0B6
:10225000E7F803460C46184621460FA3D3E90023AE
:1022600004F0BAFB03460C461A462346404649464C
:1022700004F0D6F803460C461846214604F044FD07
:1022800002460A4B1A6000BF1437BD46BDE8F08F06
:10229000F1D4C853FB2109403F1F2BD05CDBD43F56
:1022A000C001002000806640400200204C02002057
:1022B0002DE9B04300AFA24B1B781A46A14B1A6020
:1022C000A14B1B781A46A14B1A60A14B1B681846FC
:1022D00004F0F2F904460D469A4B1B68184604F0C8
:1022E000EBF991A3D3E9002304F04CFA02460B4624
:1022F0002046294604F094F803460C461846214629
:1023000004F0DAFC0246924B1A60924B1B681846A6
:1023100004F0D2F904460D468C4B1B68184604F0B5
:10232000CBF981A3D3E9002304F02CFA02460B4633
:102330002046294604F074F803460C461846214608
:1023400004F0BAFC0246834B1A60834B1B681846A4
:1023500004F0B2F974A3D3E9002304F013FA03469E
:102360000C4625461C46774B1B68184604F0A4F91A
:102370004FF00002794B04F005FA02460B46104676
:1023800019466BA3D3E9002304F0FCF902460B467F
:102390002046294604F044F803460C4618462146D8
:1023A00004F08AFC02466E4B1A606B4B1B681846A1
:1023B00004F082F95CA3D3E9002304F0E3F90346B7
:1023C0000C4625461C465F4B1B68184604F074F902
:1023D0004FF00002614B04F0D5F902460B4610465F
:1023E000194653A3D3E9002304F0CCF902460B4667
:1023F0002046294604F014F803460C4618462146A8
:1024000004F05AFC0246564B1A60514B1B68524A64
:102410001360504B1B68534A1360534B1B6818469C
:1024200004F04AF904460D464D4B1B684F4A82FBA7
:1024300003129210DB17D31A184604F03DF98046B8
:1024400089464B4B1B68184604F048F93AA3D3E978
:10245000002304F097F902460B46104619464FF048
:102460000002444B04F0B8FA02460B4610461946E7
:1024700002F030FE02460B464046494604F082F91F
:1024800002460B462046294603F0CAFF03460C4687
:102490001846214604F010FC0246334B1A60364BB6
:1024A0001B68184604F008F904460D46334B1B68B8
:1024B0002E4A82FB03129210DB17D31A184604F03F
:1024C000FBF8804689462A4B1B68184604F006F93B
:1024D00019A3D3E9002304F055F902460B46104630
:1024E00019464FF00002234B04F076FA02460B46E1
:1024F0001046194602F0A0FD02460B4640464946EA
:1025000004F040F902460B462046294603F088FFB6
:1025100003460C461846214604F0CEFB0246164BF5
:102520001A6000BFBDE8B083158C4AEA0434713FDD
:10253000C8D0D291337FF23EF1D4C853FB21094079
:10254000E001002030020020E301002014020020FE
:102550007402002050020020E40000200000E03F50
:1025600058020020E80000205402002067666666DA
:10257000C001002000806640240200200C020020E0
:1025800080B483B000AF03463960FB7197F9073020
:10259000002B0BDA0D49FB7903F00F03043B3A687B
:1025A000D2B21201D2B20B441A7609E0084997F967
:1025B00007303A68D2B21201D2B20B4483F800233A
:1025C00000BF0C37BD4680BC704700BF00ED00E087
:1025D00000E100E080B582B000AF78607B68B3F1C5
:1025E000807F01D3012311E00A4A7B6823F07F43F7
:1025F000013B53600F214FF0FF30FFF7C1FF054B48
:1026000000229A60034B07221A60002318460837FD
:10261000BD4680BD10E000E080B483B000AF7860BC
:102620007B684FF47A7202FB03F3064A136000BF23
:10263000044B1B68002BFBD100BF0C37BD4680BC90
:10264000704700BFEC00002080B400AF0D4B1B684A
:1026500001330C4A13600C4B1B68002B04D00A4B4F
:102660001B68013B084A1360084B1B68002B04D011
:10267000064B1B68013B054A136000BFBD4680BC8A
:10268000704700BFF0000020F4000020EC000020A4
:1026900080B500AF0F4B1B78002B19D10120FEF73E
:1026A00019FA00BFFEF728FA0346002BFAD00A4BAE
:1026B0001B680A4AA2FB03239B0C1846FFF78AFFFC
:1026C0000346002B00D0FEE7024B01221A7000E007
:1026D00000BF80BDF80000209000002083DE1B4377
:1026E00080B487B000AF7860396000237B6100233D
:1026F0003B610023FB6000237B6176E001227B6964
:1027000002FA03F33B613B681A683B691340FB60C4
:10271000FA683B699A4265D17B681A687B695B00FD
:10272000032101FA03F3DB431A407B681A607B68DC
:102730001A683B681B7919467B695B0001FA03F351
:102740001A437B681A603B681B79012B03D03B68F6
:102750001B79022B2ED17B689A687B695B00032171
:1027600001FA03F3DB431A407B689A607B689A683E
:102770003B685B7919467B695B0001FA03F31A43F6
:102780007B689A607B685A687B699BB21946012313
:102790008B40DB431A407B685A607B685B683A6811
:1027A000927911467A6992B201FA02F292B21A4310
:1027B0007B685A607B68DA687B699BB25B000321A7
:1027C00001FA03F3DB431A407B68DA607B68DA685E
:1027D0003B68DB7919467B695B0001FA03F31A4316
:1027E0007B68DA607B6901337B617B690F2B85D95C
:1027F00000BF1C37BD4680BC704780B485B000AFB9
:1028000078600B467B800023FB737B681A697B88AA
:102810001340002B02D00123FB7301E00023FB7364
:10282000FB7B18461437BD4680BC704780B483B02C
:1028300000AF78600B467B807B687A881A8300BF84
:102840000C37BD4680BC704780B483B000AF786061
:102850000B467B807B687A885A8300BF0C37BD4665
:1028600080BC704780B485B000AF78600B467B8039
:1028700013467B700023FB600023BB607A787B8863
:1028800003F007039B0002FA03F3FB607B88DB087D
:102890009BB218467B88DB089BB21A467B680832DD
:1028A00053F822207B8803F007039B000F2101FAD5
:1028B00003F3DB4302EA03017B6800F1080243F8FB
:1028C00022107B88DB089BB21A467B68083253F8DB
:1028D0002220FB681343BB607B88DB089BB21A464F
:1028E0007B680832B96843F8221000BF1437BD4630
:1028F00080BC704780B582B000AF01210220FEF796
:10290000CBF940F203333B6002237B7101233B711F
:102910000023BB710023FB713B4619460C48FFF7AF
:10292000DFFE01210120FEF7B7F9C0233B6002233F
:102930007B7101233B710023BB710023FB713B467C
:1029400019460348FFF7CCFE00BF0837BD4680BDDF
:102950000004024080B582B000AF01211020FEF7D4
:102960009BF94FF400633B6002237B7101233B71B1
:102970000023BB710023FB713B4619460348FFF758
:10298000AFFE00BF0837BD4680BD00BF001002404B
:1029900080B500AF02210948FFF748FF0121074831
:1029A000FFF752FF4FF400710448FFF73FFF4FF469
:1029B00080710248FFF748FF00BF80BD000402405D
:1029C00080B500AF02210948FFF730FF0121074819
:1029D000FFF72CFF4FF400710448FFF727FF4FF477
:1029E00080710248FFF722FF00BF80BD0004024053
:1029F00080B500AF012000F007F84FF47A70FFF7C0
:102A00000BFE00BF80BD000080B582B000AF034662
:102A1000FB71FB79002B05D04FF400610648FFF7EE
:102A200005FF04E04FF400610348FFF70DFF00BF0E
:102A30000837BD4680BD00BF0010024080B500AF22
:102A400000F044F80B4800F01EFA00F0E5F82820EA
:102A500000F016F9062000F013F90C2000F010F930
:102A6000012000F00DF94CF2503000F00CFA00BFDC
:102A700080BD00BFA086010080B500AF012000F03E
:102A8000FFF84CF2503000F0FEF900BF80BD80B579
:102A900082B000AF03463A60FB710B46BB71BA7956
:102AA000FB791146184600F0C9F907E03B681B782E
:102AB000184600F054F93B6801333B603B681B78D3
:102AC000002BF3D100BF0837BD4680BD80B584B070
:102AD00000AF0023FB7343E0FA7B254913469B00BC
:102AE00013449B000B440C331B6801211846FEF76E
:102AF000D3F8FA7B1E4913469B0013449B000B44FA
:102B000008331B887B6001233B720023BB720123C7
:102B1000FB7202237B72FA7B154913469B00134418
:102B20009B000B4404331B683A1D11461846FFF7FF
:102B3000D7FDFA7B0E4913469B0013449B000B44C0
:102B400010331B78002B04D1FB7B184600F012F8E1
:102B500003E0FB7B184600F02DF8FB7B0133FB7391
:102B6000FB7B052BB8D900BF1037BD4680BD00BF29
:102B70001800002080B483B000AF0346FB71FA79DF
:102B80000B4913469B0013449B000B440433196804
:102B9000FA79074813469B0013449B00034408330B
:102BA0001B884B8300BF0C37BD4680BC704700BFFD
:102BB0001800002080B483B000AF0346FB71FA799F
:102BC0000B4913469B0013449B000B4404331968C4
:102BD000FA79074813469B0013449B0003440833CB
:102BE0001B880B8300BF0C37BD4680BC704700BFFD
:102BF0001800002080B500AF0120FFF7DBFF4FF485
:102C00007A7000F040F90120FFF7B4FF4FF47A70BA
:102C100000F039F900BF80BD80B500AF0220FFF79A
:102C2000C9FF0320FFF7C6FF0420FFF7A3FF05201D
:102C3000FFF7A0FFFFF7DEFF4CF2503000F023F962
:102C4000FFF7D8FF4CF2503000F01DF9FFF7D2FF2C
:102C50004CF2503000F017F90220FFF78BFF0320F1
:102C6000FFF7A8FF0420FFF785FF0520FFF782FF8D
:102C7000FFF7C0FF4CF2503000F005F900BF80BDF7
:102C800080B582B000AF0346FB710020FFF772FFF2
:102C900097F90730002B03DA0520FFF78BFF02E0DE
:102CA0000520FFF767FFFB7903F04003002B03D0FB
:102CB0000420FFF77FFF02E00420FFF75BFFFB79B2
:102CC00003F02003002B03D00320FFF773FF02E083
:102CD0000320FFF74FFFFB7903F01003002B03D015
:102CE0000220FFF767FF02E00220FFF743FFFFF734
:102CF00081FFFB7903F00803002B03D00520FFF7C9
:102D000059FF02E00520FFF735FFFB7903F00403CC
:102D1000002B03D00420FFF74DFF02E00420FFF753
:102D200029FFFB7903F00203002B03D00320FFF7F8
:102D300041FF02E00320FFF71DFFFB7903F00103D1
:102D4000002B03D00220FFF735FF02E00220FFF73F
:102D500011FFFFF74FFF00BF0837BD4680BD80B5AC
:102D600082B000AF0346FB710020FFF723FF97F905
:102D70000730002B03DA0520FFF71CFF02E00520D7
:102D8000FFF7F8FEFB7903F04003002B03D004208B
:102D9000FFF710FF02E00420FFF7ECFEFB7903F0E1
:102DA0002003002B03D00320FFF704FF02E00320E1
:102DB000FFF7E0FEFB7903F01003002B03D00220A5
:102DC000FFF7F8FE02E00220FFF7D4FEFFF712FF44
:102DD000FB7903F00803002B03D00520FFF7EAFE80
:102DE00002E00520FFF7C6FEFB7903F00403002B89
:102DF00003D00420FFF7DEFE02E00420FFF7BAFE56
:102E0000FB7903F00203002B03D00320FFF7D2FE6F
:102E100002E00320FFF7AEFEFB7903F00103002B75
:102E200003D00220FFF7C6FE02E00220FFF7A2FE59
:102E3000FFF7E0FE00BF0837BD4680BD80B584B017
:102E400000AF03460A46FB711346BB71FB790F2B9B
:102E500001D90023FB71BB79012B01D90023BB7180
:102E6000BB799B01FB73FA7BFB791343FB73FB7B01
:102E700063F07F03FB73FB7B1846FFF701FF00BF86
:102E80001037BD4680BD80B483B000AF786000BF0E
:102E90007B685A1E7A60002BFAD100BF0C37BD4602
:102EA00080BC704780B500AF124A124B1B6843F0DC
:102EB000010313600F4B00229A600E4A0D4B1B68F2
:102EC00023F0847323F4803313600A4B0A4A5A6058
:102ED000084A084B1B6823F480231360054B00222B
:102EE000DA6000F00DF8054B4FF000629A6000BF09
:102EF00080BD00BF003802401030002400ED00E02B
:102F000080B483B000AF00237B6000233B60354A70
:102F1000344B1B6843F480331360324B1B6803F45B
:102F200000333B607B6801337B603B68002B03D13F
:102F30007B68B3F5A06FF0D12A4B1B6803F4003314
:102F4000002B02D001233B6001E000233B603B6883
:102F5000012B42D1234A234B1B6C43F08053136453
:102F6000214A214B1B6843F4804313601D4A1D4BCB
:102F70009B6893601B4A1B4B9B6843F40043936020
:102F8000184A184B9B6843F4A0539360154B174A9B
:102F90005A60144A134B1B6843F08073136000BFE0
:102FA000104B1B6803F00073002BF9D0104B40F25C
:102FB00005621A600B4A0B4B9B6823F00303936076
:102FC000084A084B9B6843F00203936000BF054B1F
:102FD0009B6803F00C03082BF9D100BF0C37BD46EA
:102FE00080BC704700380240007000400854400721
:102FF000003C024080B588B000AF01210220FDF7FF
:103000004BFE01214FF48020FDF764FE4FF4406336
:103010007B6102237B7602233B760023BB76012370
:10302000FB7607F1140319461E48FFF759FB0722E8
:103030000A211C48FFF716FC07220B211948FFF74D
:1030400011FC4FF416537B6000233B8100237B81EE
:103050000023BB8100233B820C23FB813B1D1946CF
:103060001148FDF7E1F901210F48FDF797FA012218
:1030700040F225510C48FDF7BFFA27233B77002388
:103080007B770023BB770123FB7707F11C031846EE
:1030900001F0DCF801210448FDF780FA00BF203779
:1030A000BD4680BD000402400048004080B500AF2E
:1030B00040F225515448FDF7E6FA0346002B06D0AE
:1030C0005148FDF78AFA0346DAB2504B1A70504B5A
:1030D0001B78582B07D14D4B1A784E4B1A704C4B1E
:1030E00000221A708DE04A4B1B78592B07D1474BB1
:1030F0001A78494B1A70464B00221A7081E0444BF3
:103100001B78432B07D1414B1A78444B1A70404B24
:1031100000221A7075E03E4B1B784F2B55D13B4B6C
:103120001A783F4B1A703D4B1B781A46642303FBF9
:1031300002F33B4A12781344184603F0EFFE0346AD
:103140003849184603F0F2FF03461A46364B1A6018
:10315000354B1B683549184603F02AFE03461A46CC
:10316000334B1B681946104603F022FE03461A46ED
:103170002D4B1A602C4B1B684FF00001184604F0D1
:10318000BFF80346002B09D0274B1B682949184676
:1031900003F010FE03461A46234B1A60224B1B68AD
:1031A0002449184604F0CAF80346002B09D01E4BE8
:1031B0001B682049184603F0FBFD03461A461A4BCC
:1031C0001A60134B00221A701BE0114B1B784C2B1A
:1031D00007D10E4B1A78184B1A700D4B00221A703B
:1031E0000FE00B4B1B78422B07D1084B1A78134B7F
:1031F0001A70074B00221A7003E0044B1A78044B34
:103200001A7000BF80BD00BF004800407C02002053
:10321000B8010020B5010020B4010020D801002031
:10322000CC01002000002041C001002000002D43FF
:10323000FC0000200000B443E3010020B70100209F
:1032400080B400AF034B1B68034A136000BFBD4648
:1032500080BC7047C0010020FC00002080B483B017
:1032600000AF78607B685AB2034B1A7000BF0C370E
:10327000BD4680BC704700BF9802002080B584B076
:1032800000AF01210120FDF725FD49F68313BB8026
:103290000023FB800923BB600023BB810023BB7399
:1032A0003B1D19464FF0804001F082FB01214FF099
:1032B000804001F0E7FB012201214FF0804001F046
:1032C0005FFE00BF1037BD4680BD80B582B000AF45
:1032D0001C233B7100237B710123BB710123FB7114
:1032E0003B1D184600F0B2FF00BF0837BD4680BD49
:1032F000B0B500AFB04B1B68002B40F0C782012176
:103300004FF0804001F05FFE0346002B00F007867F
:1033100001214FF0804001F07FFEA848FEF762FADD
:10332000A64B5A6813461B019B1A9B00184603F0D4
:10333000C3F99FA3D3E9002303F024FA03460C4604
:103340001846214603F0B8FC02469D4B1A609D4B7F
:10335000B3F900309AB29A4B1B689BB2D31A9BB256
:103360001AB2994B1A80984BB3F900309AB2974B26
:10337000B3F900309BB2D31A9BB21AB2944B1A80A5
:10338000944BB3F900309AB28F4BB3F900309BB233
:1033900013449BB21AB28F4B1A808F4B1B6818468E
:1033A00003F0BCFD0446884BB3F90030184603F027
:1033B000B5FD03468949184603F004FE03461D4641
:1033C000834BB3F90030184603F0A8FD0346844947
:1033D000184603F0F7FD03461946284603F0EAFCB9
:1033E00003461D467B4BB3F90030184603F096FDAB
:1033F00003464FF00001184603F0E4FD034619466A
:10340000284603F0D7FC03461946204603F0D2FCB9
:103410000346184603F09CFF02466F4B1A606E4B42
:103420001B684FF6FE72934203DD6B4B4FF6FE7244
:103430001A60694B1B6819460220FDF777FA624B48
:10344000B3F90020614B1A806648FEF7F7F9654B27
:103450005A6813461B019B1A9B00184603F02CF96F
:1034600053A3D3E9002303F08DF903460C46184615
:10347000214603F021FC02465B4B1A605B4BB3F91B
:1034800000309AB2584B1B689BB2D31A9BB21AB247
:10349000574B1A80564BB3F900309AB2554BB3F9DB
:1034A00000309BB2D31A9BB21AB2534B1A80534BC3
:1034B000B3F900309AB24E4BB3F900309BB21344CB
:1034C0009BB21AB24D4B1A804D4B1B68184603F045
:1034D00025FD0446464BB3F90030184603F01EFDA7
:1034E00003463E49184603F06DFD03461D46424B18
:1034F000B3F90030184603F011FD03463849184669
:1035000003F060FD03461946284603F053FC0346CA
:103510001D463A4BB3F90030184603F0FFFC034652
:103520004FF00001184603F04DFD034619462846AA
:1035300003F040FC03461946204603F03BFC0346DB
:10354000184603F005FF02462D4B1A602C4B1B68F2
:103550004FF6FE72934203DD294B4FF6FE721A605E
:10356000274B1B6819460320FDF7E0F9204BB3F900
:103570000020204B1A802348FEF708F9214B5A6897
:1035800013461B019B1A9B00184603F095F808A3ED
:10359000D3E9002303F0F6F803460C46184621460B
:1035A00003F08AFB0246184B1A602FE0AFF300804D
:1035B000EC51B81E85EBF53F600100208002002031
:1035C000200100202E010020160100204E010020C5
:1035D0005001002052010020380100200000A040CE
:1035E00000002041A802002024010020300100201A
:1035F000180100205401002056010020580100202D
:103600003C0100209C0200201C0100208E4BB3F9DD
:1036100000309AB28D4B1B689BB2D31A9BB21AB280
:103620008B4B1A808A4BB3F900309AB2894BB3F9AD
:1036300000309BB2D31A9BB21AB2874B1A80874BC9
:10364000B3F900309AB2824BB3F900309BB2134405
:103650009BB21AB2814B1A80814B1B68184603F04B
:103660005DFC04467A4BB3F90030184603F056FC73
:1036700003467C49184603F0A5FC03461D46764BDD
:10368000B3F90030184603F049FC03467649184662
:1036900003F098FC03461946284603F08BFB0346CB
:1036A0001D466E4BB3F90030184603F037FC034655
:1036B0004FF00001184603F085FC034619462846E2
:1036C00003F078FB03461946204603F073FB0346DC
:1036D000184603F03DFE0246614B1A60604B1B68C2
:1036E0004FF6FE72934203DD5D4B4FF6FE721A6099
:1036F0005B4B1B6819460120FDF718F9544BB3F9D1
:103700000020544B1A805948FEF7C4F8574B5A68AA
:1037100013461B019B1A9B00184602F0CDFF48A3DD
:10372000D3E9002303F02EF803460C461846214641
:1037300003F0C2FA02464E4B1A604E4BB3F900300A
:103740009AB24B4B1B689BB2D31A9BB21AB24A4B2C
:103750001A80494BB3F900309AB2484BB3F90030A4
:103760009BB2D31A9BB21AB2454B1A80454BB3F9A0
:1037700000309AB2404BB3F900309BB213449BB275
:103780001AB2404B1A80404B1B68184603F0C6FB28
:103790000446394BB3F90030184603F0BFFB03462B
:1037A0003049184603F00EFC03461D46344BB3F96E
:1037B0000030184603F0B2FB03462B49184603F0CD
:1037C00001FC03461946284603F0F4FA03461D4659
:1037D0002C4BB3F90030184603F0A0FB03464FF022
:1037E0000001184603F0EEFB03461946284603F095
:1037F000E1FA03461946204603F0DCFA0346184670
:1038000003F0A6FD0246204B1A601F4B1B684FF6C3
:10381000FE72934203DD1C4B4FF6FE721A601A4B88
:103820001B6819460420FDF781F8134BB3F90020FB
:10383000124B1A80FEF7ECF9FEF73AFD6FE300BF7A
:10384000EC51B81E85EBF53F2C0100201C01002037
:1038500014010020480100204A0100204C010020F2
:10386000340100200000A040000020418C02002014
:1038700028010020320100201A0100205A010020F6
:103880005C0100205E01002040010020BE4B1B684F
:10389000012B40F0448301214FF0804001F093FB65
:1038A0000346002B00F03B8301214FF0804001F0E4
:1038B000B3FBB648FDF796FFB44B5A6813461B019D
:1038C0009B1A9B00184602F0F7FEABA3D3E9002336
:1038D00002F058FF03460C461846214603F0ECF967
:1038E0000246AB4B1A60AB4BB3F900309AB2A84B0F
:1038F0001B689BB2D31A9BB21AB2A74B1A80A64B75
:10390000B3F900301A46A54BB3F90030D31A184664
:1039100002F0D2FE9AA3D3E9002303F05DF8034638
:103920000C461846214603F0C7F903461AB29C4BD1
:103930001A809C4BB3F90030184602F0BDFE0446D5
:103940000D46954BB3F90030184602F0B5FE8CA336
:10395000D3E9002302F016FF02460B462046294613
:1039600002F05EFD03460C461846214603F0A4F91A
:1039700003461AB28B4B1A808B4B1B68184603F018
:10398000CDFA0446844BB3F90030184603F0C6FA6A
:1039900003464FF07F51184603F014FB03461D46C3
:1039A0007F4BB3F90030184603F0B8FA03464FF0E6
:1039B0000001184603F006FB03461946284603F0AB
:1039C000F9F903461D46774BB3F90030184603F06A
:1039D000A5FA03461946284603F0ECF903461946B2
:1039E000204603F0E7F90346184603F0B1FC02460F
:1039F0006D4B1A606C4B1B684FF6FE72934203DDF1
:103A0000694B4FF6FE721A60674B1B68194602201D
:103A1000FCF78CFF604BB3F90020604B1A806348C1
:103A2000FDF70CFF614B5A6813461B019B1A9B0064
:103A3000184602F041FE50A3D3E9002302F0A2FE93
:103A400003460C461846214603F036F90246584B09
:103A50001A60584BB3F900309AB2554B1B689BB2B1
:103A6000D31A9BB21AB2544B1A80534BB3F900309D
:103A70001A46524BB3F90030D31A184602F01CFE16
:103A80003FA3D3E9002302F0A7FF03460C461846E4
:103A9000214603F011F903461AB2494B1A80494BEB
:103AA000B3F90030184602F007FE04460D46424BBB
:103AB000B3F90030184602F0FFFD31A3D3E900232B
:103AC00002F060FE02460B462046294602F0A8FCA2
:103AD00003460C461846214603F0EEF803461AB298
:103AE000384B1A80384B1B68184603F017FA044607
:103AF000314BB3F90030184603F010FA03464FF08B
:103B00007F51184603F05EFA03461D462C4BB3F96D
:103B10000030184603F002FA03464FF00001184641
:103B200003F050FA03461946284603F043F90346CA
:103B30001D46244BB3F90030184603F0EFF9034655
:103B40001946284603F036F903461946204603F085
:103B500031F90346184603F0FBFB02461A4B1A6084
:103B6000194B1B684FF6FE7293422FDD164B4FF632
:103B7000FE721A602AE000BFEC51B81E85EBF53FDB
:103B8000158C4AEA0434713F600100208002002055
:103B9000200100202E010020160100204E010020EF
:103BA000500100205201002038010020A80200200E
:103BB00024010020300100201801002054010020C1
:103BC00056010020580100203C010020BC4B1B681E
:103BD00019460320FCF7AAFEBA4BB3F90020BA4BF2
:103BE0001A80BA48FDF7D2FDB84B5A6813461B013C
:103BF0009B1A9B00184602F05FFDADA3D3E900239A
:103C000002F0C0FD03460C461846214603F054F866
:103C10000246AF4B1A60AF4BB3F900309AB2AC4BCF
:103C20001B689BB2D31A9BB21AB2AB4B1A80AA4B39
:103C3000B3F900301A46A94BB3F90030D31A18462D
:103C400002F03AFD9CA3D3E9002302F0C5FE03462F
:103C50000C461846214603F02FF803461AB2A04B33
:103C60001A80A04BB3F90030184602F025FD044637
:103C70000D46994BB3F90030184602F01DFD8EA396
:103C8000D3E9002302F07EFD02460B46204629467A
:103C900002F0C6FB03460C461846214603F00CF81A
:103CA00003461AB28F4B1A808F4B1B68184603F0DD
:103CB00035F90446884BB3F90030184603F02EF965
:103CC00003464FF07F51184603F07CF903461D462A
:103CD000834BB3F90030184603F020F903464FF048
:103CE0000001184603F06EF903461946284603F012
:103CF00061F803461D467B4BB3F90030184603F0CC
:103D00000DF903461946284603F054F803461946B0
:103D1000204603F04FF80346184603F019FB02460D
:103D2000714B1A60704B1B684FF6FE72934203DDB5
:103D30006D4B4FF6FE721A606B4B1B6819460120E3
:103D4000FCF7F4FD644BB3F90020644B1A8067481C
:103D5000FDF7A0FD654B5A6813461B019B1A9B009B
:103D6000184602F0A9FC52A3D3E9002302F00AFD91
:103D700003460C461846214602F09EFF02465C4B65
:103D80001A605C4BB3F900309AB2594B1B689BB276
:103D9000D31A9BB21AB2584B1A80574BB3F9003062
:103DA0001A46564BB3F90030D31A184602F084FC79
:103DB00041A3D3E9002302F00FFE03460C46184648
:103DC000214602F079FF03461AB24D4B1A804D4B43
:103DD000B3F90030184602F06FFC04460D46464B1E
:103DE000B3F90030184602F067FC33A3D3E900238F
:103DF00002F0C8FC02460B462046294602F010FBA2
:103E000003460C461846214602F056FF03461AB2F6
:103E10003C4B1A803C4B1B68184603F07FF8044665
:103E2000354BB3F90030184603F078F803464FF0ED
:103E30007F51184603F0C6F803461D46304BB3F9D0
:103E40000030184603F06AF803464FF000011846A8
:103E500003F0B8F803461946284602F0ABFF0346C4
:103E60001D46284BB3F90030184603F057F80346B7
:103E70001946284602F09EFF03461946204602F0E6
:103E800099FF0346184603F063FA02461E4B1A6078
:103E90001D4B1B684FF6FE72934203DD1A4B4FF623
:103EA000FE721A60184B1B68194604202EE000BFF2
:103EB000EC51B81E85EBF53F158C4AEA0434713F8E
:103EC0003C01002018010020540100209C02002029
:103ED0001C0100202C0100201401002048010020BA
:103EE0004A0100204C010020340100208C020020F7
:103EF00028010020320100201A0100205A01002070
:103F00005C0100205E01002040010020FCF70EFD56
:103F1000044BB3F90020044B1A80FDF779FE00BF73
:103F2000B0BD00BF1A0100205A01002080B485B046
:103F300000AF7B600346FB810B46BB8113467B8150
:103F40000A4B00221A600A4AFB891380094ABB897E
:103F50001380094A7B8913807B681AB2074B1A8049
:103F600000BF1437BD4680BC704700BF6001002011
:103F70002C0100202E010020300100203201002001
:103F800080B500AFFFF77AF9FFF79FF90B48FDF70F
:103F900005FA0B48FDF756FA0A48FDF7A7FA0A4852
:103FA000FDF7F8FA0948FDF749FB0948FDF79AFBC8
:103FB000FCF71AFCFCF75CFC00BF80BD9C020020F3
:103FC00080020020A80200208C020020B8020020FD
:103FD000C402002080B582B000AF78607B689BB2DD
:103FE0005B429BB218B27B689BB25B429BB219B238
:103FF0007B681AB27B68FFF799FF034B00221A70A7
:1040000000BF0837BD4680BD9802002080B582B051
:1040100000AF78607B6818B27B6819B27B689BB28E
:104020005B429BB21AB27B685B42FFF77FFF0020C6
:10403000FFF714F900BF0837BD4680BD80B582B0D8
:1040400000AF78607B6818B27B689BB25B429BB222
:1040500019B27B689BB25B429BB21AB27B68FFF7D6
:1040600065FF0020FFF7FAF800BF0837BD4680BDA6
:1040700080B582B000AF78607B689BB25B429BB238
:1040800018B27B6819B27B681AB27B685B42FFF793
:104090004DFF0020FFF7E2F800BF0837BD4680BDA6
:1040A00080B582B000AF78607B689BB25B429BB208
:1040B00018B27B689BB25B429BB219B27B689BB221
:1040C0005B429BB21AB27B685B42FFF72FFF012075
:1040D000FFF7C4F800BF0837BD4680BD80B582B089
:1040E00000AF78607B6818B27B6819B27B681AB23F
:1040F0007B68FFF71BFF0120FFF7B0F800BF083710
:10410000BD4680BD80B485B000AF78600023FB6001
:10411000344BFB607B689B79002B4FD03149314B8E
:104120001A687B681B68DB4313400B602D492D4BDD
:104130005A687B681B68DB4313404B607B681B79C4
:104140001A46FB681344FB60FB68FA6811687A68DA
:1041500012680A431A602349224B9A687B681B68DD
:10416000DB4313408B601F491E4BDA687B681B687A
:10417000DB431340CB607B685B79102B0ED1194970
:10418000184B9A687B681B6813438B601549154B65
:10419000DA687B681B681343CB601DE0114BFB6042
:1041A0007B685B791A46FB681344FB60FB68FA681E
:1041B00011687A6812680A431A600DE07B681B79FF
:1041C0001A46FB681344FB60FB68FA6811687A685A
:1041D0001268D2430A401A6000BF1437BD4680BC43
:1041E000704700BF003C014080B485B000AF7860EC
:1041F0000023FB730023BB600C4B1A687B681340E1
:10420000BB600A4B5A697B681340002B05D0BB6822
:10421000002B02D00123FB7301E00023FB73FB7B27
:1042200018461437BD4680BC704700BF003C0140B3
:1042300080B483B000AF7860034A7B68536100BFED
:104240000C37BD4680BC7047003C014080B485B04F
:1042500000AF78600023FB730023BB730F237B73D5
:104260007B68DB78002B39D0274BDB68DB431B0AEC
:10427000DBB203F00703FB73FB7BC3F10403BB73E7
:104280007A7BFB7B42FA03F37B737B685B781A468D
:10429000BB7B02FA03F3FB737B689A787B7B13404A
:1042A000DAB2FB7B1343FB73FB7B1B01FB73174AE7
:1042B0007B681B781344FA7B83F80023134A7B68DE
:1042C0001B785B09DBB218467B681B7803F01F0381
:1042D000012101FA03F342F820300FE00B497B681B
:1042E0001B785B09DBB218467B681B7803F01F0361
:1042F00001229A4000F1200341F8232000BF143727
:10430000BD4680BC704700BF00ED00E000E100E06A
:1043100090B583B000AF786039607B68012B40F0C6
:10432000AA807B4B1B78732B44D17A4B1B68002BE4
:1043300016D1794B1B68002B0ED100F07BF9754B21
:1043400000221A60754B1B78322B02D8FEF720FB37
:10435000D4E0FEF735FBD1E06E4B01221A60CDE0D0
:104360006C4B1B68012B18D100F09AFA6C4B1B6840
:104370006C49184602F0D8FF0346002B09D1684B60
:104380001B686949184602F0C5FF0346002B00D19F
:10439000B4E0604B02221A60B0E05E4B1B68022B57
:1043A00040F0AC80FEF70CFBFEF722FB594B0022DD
:1043B0001A60A3E05D4BD3E900014FF000025C4BB3
:1043C00002F02EF803460C46584AC2E90034574B17
:1043D000D3E900014CA3D3E9002302F03BFC0346E0
:1043E000002B09D04A4B73221A70504A4FF0000339
:1043F0004FF00004C2E900344E4B1B78242B03D14C
:104400007820FFF735FE79E04A4B1B78252B03D146
:104410007820FFF713FE71E0464B1B78402B03D149
:104420007820FFF7D7FD69E0424B1B78232B03D19F
:104430007820FFF7EBFD61E03E4B1B785E2B03D14C
:104440005A20FFF74BFE59E03A4B1B78262B03D13D
:104450005A20FFF725FE51E0364B1B782A2B03D05C
:104460002B4B1B78532B49D1002300220021002025
:10447000FFF75CFD42E0274B1B68002B16D1264B53
:104480001B68012B0ED100F0D5F8224B00221A60D8
:10449000224B1B78322B02D8FEF77AFA2EE0FEF779
:1044A0008FFA2BE01B4B01221A6027E0194B1B6887
:1044B000012B18D100F0F4F9194B1B681E4918465E
:1044C00002F032FF0346002B09D1154B1B681B4934
:1044D000184602F01FFF0346002B00D10EE00D4BE3
:1044E00002221A600AE00B4B1B68022B06D1FEF772
:1044F00067FAFEF77DFA074B00221A6000BF0C37FF
:10450000BD4690BDAFF3008000000000A8CB58412D
:10451000B6010020A8010020E8010020B40100201D
:10452000C00100200080B1430000A040A001002095
:104530000000F03FC40100200000AF430000204114
:1045400080B582B002AFFEF797FA164B1B6818468B
:1045500002F0C4F8144B1B781A46144B1B780193D5
:10456000009202460B4612491248FCF700FF114A1E
:1045700000210020FEF78BFA0F4B1B781A460A4BDE
:104580001B781946094B1B7800930B460B490948C9
:10459000FCF7EDFE074A01210020FEF778FA00BF84
:1045A000BD4680BDC0010020B4010020B50100203F
:1045B0009C730008D8020020B6010020AC730008EC
:1045C00080B582B000AF01210420FCF765FB802399
:1045D0003B6001233B7103237B710023BB710223EA
:1045E000FB713B4619460348FEF77AF800BF0837CF
:1045F000BD4680BD0008024080B582B000AF0121F9
:104600000420FCF749FB4FF400533B6000233B714F
:1046100003237B710023BB710223FB713B461946C8
:104620000348FEF75DF800BF0837BD4680BD00BFF8
:104630000008024090B583B000AF3E4B1B78272B9B
:1046400002D81E237B6008E03A4B1B78312B02D83E
:104650005A237B6001E05A237B60374B1B7878221A
:104660007021184600F074F83860344B1B78012B29
:104670001BD13B689AB27B689BB2D31A9BB218B22B
:104680003B689AB27B689BB2D31A9BB219B23B6863
:104690009AB27B689BB213449BB21CB23A687B68A7
:1046A00013442246FFF742FC40E0254B1B68002BD9
:1046B0000FD1244B1B682449184602F07BFB0346AC
:1046C000184602F045FE0246204B1A601C4B0122A0
:1046D0001A601B4B1B68012B25D13220FFF7E0FC31
:1046E0001A4B1B68053B184602F018FC0246154B96
:1046F0001B681946104602F00DFE0346002B12D02F
:10470000124B1B680533184602F008FC02460D4B9D
:104710001B681946104602F007FE0346002B02D024
:10472000074B02221A60064B00221A6000BF0C37AA
:10473000BD4690BDB4010020B5010020B7010020A6
:104740008C010020C00100200000A0415C0300207B
:10475000B0B584B000AFF860B9607A60BA68FB6841
:10476000D31A184602F0DAFB0246454B1A60444B56
:104770001A68444B1B681946104602F019FB0346A1
:104780001A46414B1A60414B1A683D4B1B6819464B
:10479000104602F00FFB03461A463C4B1A603C4B96
:1047A0001A68374B1B681946104602F00BFC03468B
:1047B0001D46384BD3E900341846214602F0A4FACE
:1047C0000246314B1B681946104602F0FBFB0346BC
:1047D0001946284602F0EEFA03461D462E4BD3E951
:1047E00000341846214602F08FFA0246274B1B6818
:1047F0001946104602F0E6FB03461946284602F029
:10480000D9FA0346184602F0A3FD0246234B1A606C
:10481000224B1A687B689A4203DD204A7B6813604A
:1048200023E01E4B1B68042B07DC1C4B1B68002B72
:1048300003DD1A4B05221A6017E0184B1B6813F1B1
:10484000040F08DB154B1B68002B04DA134B6FF0C9
:1048500004021A6009E07B685A42104B1B689A42B6
:1048600003DD7B685B420D4A1360054B1B68054AFC
:1048700013600A4B1B6818461037BD46B0BD00BF19
:1048800018030020340300200003002058030020F8
:10489000AC000020B000002078010020FC020020C5
:1048A00080B500AF144B1B681449184602F03CFD5C
:1048B0000346002B09D1104B1B684FF0804118466E
:1048C00002F028FD0346002B01D0012311E00A4B22
:1048D0001B68184602F03CFD0346142200211846CE
:1048E000FFF736FF03461846FFF7DAFBFEF750F8EE
:1048F0000023184680BD00BFC00100200000B34364
:1049000080B584B000AF01210820FCF7E3F94AF23A
:104910000F43BB800023FB8040F2E733BB600023E2
:10492000BB810023BB733B1D1946084800F040F8CB
:104930000121064800F0A6F801220121034800F0F9
:104940001FFB00BF1037BD4680BD00BF000C0040FC
:1049500080B582B000AF32233B7100237B7100230E
:10496000BB710123FB713B1D1846FFF76FFC00BFB5
:104970000837BD4680BD000080B500AF0121074863
:1049800000F021FB0346002B05D00121034800F075
:1049900043FBFFF7D5FD00BF80BD00BF000C00400A
:1049A00080B500AFFFF7ACFFFFF7D2FF00BF80BDBF
:1049B00080B485B000AF786039600023FB817B68EC
:1049C0001B88FB817B68284A934213D07B68274A67
:1049D00093420FD07B68B3F1804F0BD07B68244AA1
:1049E000934207D07B68234A934203D07B68224AD4
:1049F000934208D1FB8923F07003FB813B685A88FE
:104A0000FB891343FB817B681C4A93420CD07B6873
:104A10001B4A934208D0FB8923F44073FB813B6817
:104A20001A89FB891343FB817B68FA891A803B68EA
:104A30005A687B68DA623B681A887B681A857B68EB
:104A4000094A934203D07B68084A934204D13B68E9
:104A50009B7A9AB27B681A867B6801229A8200BF91
:104A60001437BD4680BC704700000140000401407F
:104A70000004004000080040000C0040001000400E
:104A80000014004080B483B000AF78600B46FB7028
:104A9000FB78002B08D07B681B889BB243F0010396
:104AA0009AB27B681A8007E07B681B889BB223F070
:104AB00001039AB27B681A8000BF0C37BD4680BCE8
:104AC0007047000080B485B000AF78603960002383
:104AD0007B810023FB810023BB817B681B8C9BB205
:104AE00023F001039AB27B681A847B681B8CFB81DC
:104AF0007B689B88BB817B681B8B7B817B8923F0D8
:104B000070037B817B8923F003037B813B681A88D8
:104B10007B8913437B81FB8923F00203FB813B6884
:104B20009A89FB891343FB813B685A88FB891343AD
:104B3000FB817B681E4A934203D07B681D4A9342E7
:104B400023D1FB8923F00803FB813B68DA89FB89C9
:104B50001343FB81FB8923F00403FB813B689A88A4
:104B6000FB891343FB81BB8923F48073BB81BB8921
:104B700023F40073BB813B681A8ABB891343BB8152
:104B80003B685A8ABB891343BB817B68BA899A8088
:104B90007B687A891A833B689A687B685A637B686A
:104BA000FA891A8400BF1437BD4680BC704700BF25
:104BB000000001400004014080B485B000AF78607F
:104BC000396000237B810023FB810023BB817B684C
:104BD0001B8C9BB223F010039AB27B681A847B680B
:104BE0001B8CFB817B689B88BB817B681B8B7B81DB
:104BF0007B8923F4E0437B817B8923F440737B81B1
:104C00003B681B881B029AB27B8913437B81FB891B
:104C100023F02003FB813B689B891B019AB2FB892F
:104C20001343FB813B685B881B019AB2FB891343EA
:104C3000FB817B68224A934203D07B68214A9342DE
:104C40002BD1FB8923F08003FB813B68DB891B01AF
:104C50009AB2FB891343FB81FB8923F04003FB815C
:104C60003B689B881B019AB2FB891343FB81BB897C
:104C700023F48063BB81BB8923F40063BB813B6861
:104C80001B8A9B009AB2BB891343BB813B685B8A3A
:104C90009B009AB2BB891343BB817B68BA899A8017
:104CA0007B687A891A833B689A687B689A637B6819
:104CB000FA891A8400BF1437BD4680BC704700BF14
:104CC000000001400004014080B485B000AF78606E
:104CD000396000237B810023FB810023BB817B683B
:104CE0001B8C9BB223F480739AB27B681A847B6816
:104CF0001B8CFB817B689B88BB817B689B8B7B814A
:104D00007B8923F070037B817B8923F003037B8104
:104D10003B681A887B8913437B81FB8923F40073EA
:104D2000FB813B689B891B029AB2FB891343FB8181
:104D30003B685B881B029AB2FB891343FB817B684B
:104D4000224A934203D07B68214A93422BD1FB89AC
:104D500023F40063FB813B68DB891B029AB2FB8969
:104D60001343FB81FB8923F48063FB813B689B88B1
:104D70001B029AB2FB891343FB81BB8923F4805346
:104D8000BB81BB8923F40053BB813B681B8A1B0199
:104D90009AB2BB891343BB813B685B8A1B019AB201
:104DA000BB891343BB817B68BA899A807B687A8907
:104DB0009A833B689A687B68DA637B68FA891A840D
:104DC00000BF1437BD4680BC704700BF00000140E3
:104DD0000004014080B485B000AF786039600023E2
:104DE000BB8100237B810023FB817B681B8C9BB2F2
:104DF00023F480539AB27B681A847B681B8C7B8176
:104E00007B689B88FB817B689B8BBB81BB8923F480
:104E1000E043BB81BB8923F44073BB813B681B88A3
:104E20001B029AB2BB891343BB817B8923F40053D5
:104E30007B813B689B891B039AB27B8913437B81EF
:104E40003B685B881B039AB27B8913437B817B6839
:104E5000114A934203D07B68104A93420AD1FB89DE
:104E600023F48043FB813B681B8A9B019AB2FB8938
:104E70001343FB817B68FA899A807B68BA899A839D
:104E80003B689A687B681A647B687A891A8400BFD9
:104E90001437BD4680BC704700000140000401404B
:104EA00080B485B000AF78600B467B800023FB8127
:104EB0007B681B8BFB81FB8923F00803FB81FA894C
:104EC0007B881343FB817B68FA891A8300BF143700
:104ED000BD4680BC704780B485B000AF78600B469B
:104EE0007B800023FB817B681B8BFB81FB8923F488
:104EF0000063FB817B881B029AB2FB891343FB8111
:104F00007B68FA891A8300BF1437BD4680BC70479E
:104F100080B485B000AF78600B467B800023FB81B6
:104F20007B689B8BFB81FB8923F00803FB81FA895B
:104F30007B881343FB817B68FA899A8300BF14370F
:104F4000BD4680BC704780B485B000AF78600B462A
:104F50007B800023FB817B689B8BFB81FB8923F497
:104F60000063FB817B881B029AB2FB891343FB81A0
:104F70007B68FA899A8300BF1437BD4680BC7047AE
:104F800080B483B000AF78600B467B8013467B70A3
:104F90007B78002B08D07B689B899AB27B8813436F
:104FA0009AB27B689A8109E07B689B899AB27B8878
:104FB000DB439BB213409AB27B689A8100BF0C37E7
:104FC000BD4680BC704780B485B000AF78600B46AA
:104FD0007B800023FB730023BB8100237B817B68E4
:104FE0001B8A9AB27B881340BB817B689B899AB2EB
:104FF0007B8813407B81BB89002B05D07B89002BEC
:1050000002D00123FB7301E00023FB73FB7B1846F6
:105010001437BD4680BC704780B483B000AF786061
:105020000B467B807B88DB439AB27B681A8200BF89
:105030000C37BD4680BC704730B5224A21F0004392
:10504000934287B01BDD204A934205DD02460B46A2
:1050500001F0E4F907B030BD02AA00F081F800F0D9
:105060000303012B1AD0022B0FD01BB30124DDE95F
:105070000423DDE90201009401F002F8EAE70022CE
:10508000002300F091FA07B030BDDDE90423DDE92B
:10509000020100F089FA01F10041DBE7DDE9044596
:1050A0000093DDE9020122462B4600F0E9FF01F101
:1050B0000041CFE7DDE90423DDE9020100F074FAE5
:1050C000C8E700BFFB21E93FFFFFEF7F21F0004170
:1050D000704700BF30B51F4A21F00043934287B0AC
:1050E0001BDD1D4A934205DD02460B4601F096F991
:1050F00007B030BD02AA00F033F800F00300012829
:10510000DDE904231AD002280FD0E0B1DDE9020165
:1051100000F04AFA01F10041EAE70023009300227F
:10512000002300F0ADFF07B030BD0124DDE902012E
:10513000009400F0A5FF01F10041D9E7DDE902018B
:1051400000F032FAD4E70124DDE90201009400F016
:1051500097FFCDE7FB21E93FFFFFEF7F0000000055
:105160002DE9F04F9A4E21F00047B74291B040F33D
:105170008E809246974A97420C4626DC00298AA3E5
:10518000D3E9002340F3B48101F048F9924B9F42E8
:1051900004460D4600F0908085A3D3E9002301F07A
:1051A0003DF902460B46CAE900232046294601F094
:1051B00035F97FA3D3E9002301F030F90125CAE9CD
:1051C0000201284611B0BDE8F08F844A974240F3AF
:1051D0009080834A974265DC3D15A5F21645A7EB02
:1051E000055319461F46064601F066FD01F064FAB4
:1051F0008046894602460B4630463946CDE90A8943
:1052000001F00CF90022774B01F0BCFA8946804688
:1052100001F052FD01F050FA02460B4606460F46D9
:1052200040464946CDE90C6701F0F8F800226D4B85
:1052300001F0A8FA00220023CDE90E0101F00AFDD9
:10524000002800F07381002330463946002201F027
:1052500001FD002814BF01230223634A01920221A9
:105260002A4600910AA8514600F0C2FA002C0546D1
:1052700014DADAF80420DAF80C3002F1004203F113
:1052800000434542CAF80420CAF80C3006E0C2E9DF
:10529000000100250024C2E902450025284611B07E
:1052A000BDE8F08F02460B4601F0B8F80025CAE9C8
:1052B0000201CAE90001F1E73FA3D3E9002301F0AD
:1052C000ADF83FA3D3E900230D46044601F0A6F84C
:1052D00002460B46CAE900232946204601F09EF803
:1052E00037A3D3E9002301F099F80125CAE90201A7
:1052F000D4E7FFF7EBFE34A3D3E9002380468946C9
:1053000001F040FA0022394B01F08AF801F0D4FC98
:10531000054601F0D1F924A3D3E90023CDE9040126
:1053200001F030FA02460B464046494601F076F855
:105330001FA3D3E9002380468946DDE9040101F07B
:1053400021FA1F2DCDE9020154DC294B6A1E53F8C6
:1053500022309F424ED002460B464046494601F05D
:105360005DF802460B46CAE9002383460E465A46BC
:1053700033464046494601F051F8DDE9022301F089
:105380004DF8002C02460B46CAE9022386DA5B463A
:1053900006F1004601F100418AE84800CAF80C1005
:1053A000CAF808006D4279E700004054FB21F93F3C
:1053B0003163621A61B4D03D0000601A61B4D03D1F
:1053C0007370032E8A19A33B83C8C96D305FE43F15
:1053D000FB21E93F7BD90240FB21F93FFB21394109
:1053E000FFFFEF7F000070413C7400080000E03FC9
:1053F000BC730008DDE902234046494601F00EF87F
:105400003A15C1F30A53D31A102B83460E4609925C
:10541000CAE90001ABDD58A3D3E90023DDE90401AB
:1054200001F0B0F906460F4602460B464046494693
:1054300000F0F4FFCDE9060102460B46404649461E
:1054400000F0ECFF32463B4600F0E8FF4CA3D3E906
:10545000002306460F46DDE9040101F093F93246C8
:105460003B4600F0DBFFDDE90689CDE9020102469B
:105470000B464046494600F0D1FF0B46C1F30A57A0
:105480000E460999CF1B0246312F8346CAE90023F5
:105490006CDD3DA3D3E90023DDE9040101F072F9DD
:1054A00006460F4602460B4640464946CDE9068968
:1054B00000F0B4FF02460B4680468946DDE906014E
:1054C00000F0ACFF32463B4600F0A8FF30A3D3E922
:1054D000002306460F46DDE9040101F053F9324688
:1054E0003B4600F09BFF02460B46CDE9022334E722
:1054F00000F096FF2A4B9F4204460D4618D026A383
:10550000D3E9002300F08CFF02460B46CAE90023D2
:105510002946204600F082FF1FA3D3E9002300F0B4
:105520007FFF4FF0FF35CAE90201B7E6032394E697
:1055300011A3D3E9002300F073FF11A3D3E90023E3
:105540000D46044600F06CFF02460B46CAE90023F4
:105550002946204600F062FF09A3D3E9002300F0AA
:105560005FFF4FF0FF35CAE9020197E6DDE90689E2
:10557000FDE600BFAFF300800000601A61B4D03DCB
:105580007370032E8A19A33B0000002E8A19A33BD7
:10559000C14920259A837B393163621A61B4D03DB9
:1055A000FB21F93F000000002DE9F04F21F00046FB
:1055B000B6F1795F85B00C4692469B4605466BDA9C
:1055C00001F07AFB002800F0E8802A4623462846AE
:1055D000214601F0D7F874A3D3E900238046894619
:1055E00001F0D0F872A3D3E9002300F019FF42467E
:1055F0004B4601F0C7F870A3D3E9002300F00EFF7B
:1056000042464B4601F0BEF86DA3D3E9002300F0FB
:1056100007FF42464B4601F0B5F86BA3D3E90023E0
:1056200000F0FCFE42464B4601F0ACF868A3D3E91B
:10563000002300F0F5FE42464B4601F0A3F8CDE909
:1056400000010022644B4046494601F09BF8DDE929
:10565000002306460F464046494601F093F852465D
:10566000804689465B462846214601F08BF8024673
:105670000B464046494600F0D1FE02460B463046F6
:10568000394600F0CBFE02460B460020534900F09D
:10569000C5FE05B0BDE8F08F02460B4601F072F87A
:1056A00041A3D3E900238046894601F06BF840A36B
:1056B000D3E9002300F0B4FE42464B4601F062F805
:1056C0003DA3D3E9002300F0A9FE42464B4601F07A
:1056D00059F83BA3D3E9002300F0A2FE42464B4613
:1056E00001F050F838A3D3E9002300F097FE4246BA
:1056F0004B4601F047F836A3D3E9002300F090FEB3
:105700004B46424601F03EF8354B9E42CDE9000142
:1057100097DD344B9E424FF0000238DCA6F50013B3
:1057200000202E4916461F4600F078FECDE9020102
:105730000022294B4046494601F024F832463B46B8
:1057400000F06CFEDDE9002306460F464046494660
:1057500001F018F85246804689465B4628462146A5
:1057600001F010F802460B464046494600F056FE4E
:1057700002460B463046394600F050FE02460B46C4
:10578000DDE9020100F04AFE05B0BDE8F08F164BDE
:10579000164FCDE902230026CAE71049002005B0C4
:1057A000BDE8F08FAFF30080D43888BEE9FAA8BD19
:1057B000C4B1B4BD9EEE213EAD529C804F7E923E60
:1057C0009015CB19A001FA3E7751C1166CC1563F16
:1057D0004C5555555555A53F0000E03F0000F03FA2
:1057E0003233D33F0000E93F0000E73F0000D23FE3
:1057F0002DE9F04FADF5197D9C4CA29E9C4D54F8BF
:10580000264005942646D41E85FB0475E417C4EB98
:10581000A50424EAE4741D460893631CA3EB8303E8
:10582000013D02EBC30304932B4609940295651BCB
:10583000F418039006911AD42C4401340DF1780821
:1058400000260027DDF88C9208E059F8250000F0CA
:1058500033FF0135A542E8E9020108D0002DF4DA52
:10586000013530463946A542E8E90201F6D1059BEB
:10587000002B2EDB089B4FEAC309039BA9F1080804
:10588000984420AB9944059B70AA02EBC30B0DF51D
:10589000DC7A029B002BC0F20F83039B4D46A3F1E1
:1058A00008040026002775E90223F4E9020100F04C
:1058B00069FF02460B463046394600F0B1FD4445CB
:1058C00006460F46EFD1EAE90267DA4509F1080911
:1058D000DFD10598089A009000F18043013B9B00BE
:1058E0000CAC191F234402F100520B93039B013AA5
:1058F00021440A9103EBC20B009A98A901EBC20361
:10590000002A53E9284513462BDD01EBC308A8F113
:10591000A8080DF12C090DF5DC7A0022554B204624
:10592000294600F02FFF01F0C7F900F0C5FE002264
:10593000514B06460F4600F025FF02460B46204617
:10594000294600F06BFD01F0B7F978E8022349F829
:10595000040F3946304600F063FDD04504460D463D
:10596000DBD1DDF81090204629464A4600F0CCFCF9
:1059700000224FF07F5304460D4600F003FF00F075
:1059800037FC00223D4B00F0FDFE02460B46204650
:10599000294600F043FD0D46044601F08DF980468E
:1059A00000F08AFE0B4602462946204600F036FDEE
:1059B0004B46002B06460F4640F3F780009A0CA991
:1059C000013AC9F1180351F8225045FA03F101FADE
:1059D00003F30CA8EB1A40F82230C9F117058844EC
:1059E00043FA05F5002D63DD009B002B08F101084B
:1059F00040F381820C9C002C00F0188301200023CE
:105A00000CAAC4F1807442F82340009A824219DD46
:105A10000CAA0CAC52F820106FF07F42511A44F8D7
:105A200020100099023399420CDD1046009A0CA90F
:105A300001EB830301EB82011A68821A43F8042BFD
:105A40008B42F9D1049B002B1ADD049B012B4FF0F4
:105A5000010440F05882009B5A1E0CAB0CA953F86D
:105A60002230C3F3160341F8223058E2887500084B
:105A7000ABAAAA2A0000703E00007041000020403E
:105A8000022D15D132463B460020974900F0C6FC56
:105A900006460F46049A9449002000F035FC024661
:105AA0000B463046394600F0B9FC022506460F4643
:105AB000002200233046394601F0CCF8002800F0DF
:105AC0005282009A059B501E83420FDC02F18043F4
:105AD000013B0CAA0B9C02EB8303002253F8041930
